{
  "_format": "hh-sol-artifact-1",
  "contractName": "RevengeOfTheFlash",
  "sourceName": "contracts/core/RevengeOfTheFlash.sol",
  "abi": [
    {
      "anonymous": false,
      "inputs": [
        {
          "indexed": true,
          "internalType": "address",
          "name": "previousOwner",
          "type": "address"
        },
        {
          "indexed": true,
          "internalType": "address",
          "name": "newOwner",
          "type": "address"
        }
      ],
      "name": "OwnershipTransferred",
      "type": "event"
    },
    {
      "inputs": [],
      "name": "executeCont",
      "outputs": [],
      "stateMutability": "nonpayable",
      "type": "function"
    },
    {
      "inputs": [],
      "name": "owner",
      "outputs": [
        {
          "internalType": "address",
          "name": "",
          "type": "address"
        }
      ],
      "stateMutability": "view",
      "type": "function"
    },
    {
      "inputs": [],
      "name": "renounceOwnership",
      "outputs": [],
      "stateMutability": "nonpayable",
      "type": "function"
    },
    {
      "inputs": [
        {
          "internalType": "address",
          "name": "newOwner",
          "type": "address"
        }
      ],
      "name": "transferOwnership",
      "outputs": [],
      "stateMutability": "nonpayable",
      "type": "function"
    }
  ],
  "bytecode": "0x60806040523480156200001157600080fd5b5062000032620000266200003860201b60201c565b6200004060201b60201c565b62000104565b600033905090565b60008060009054906101000a900473ffffffffffffffffffffffffffffffffffffffff169050816000806101000a81548173ffffffffffffffffffffffffffffffffffffffff021916908373ffffffffffffffffffffffffffffffffffffffff1602179055508173ffffffffffffffffffffffffffffffffffffffff168173ffffffffffffffffffffffffffffffffffffffff167f8be0079c531659141344cd1fd0a4f28419497f9722a3daafe3b4186f6b6457e060405160405180910390a35050565b614cd280620001146000396000f3fe608060405234801561001057600080fd5b506004361061004c5760003560e01c8063715018a6146100515780638da5cb5b1461005b578063dc1494cf14610079578063f2fde38b14610083575b600080fd5b61005961009f565b005b610063610127565b6040516100709190613d8c565b60405180910390f35b610081610150565b005b61009d6004803603810190610098919061381b565b612e81565b005b6100a7612f79565b73ffffffffffffffffffffffffffffffffffffffff166100c5610127565b73ffffffffffffffffffffffffffffffffffffffff161461011b576040517f08c379a0000000000000000000000000000000000000000000000000000000008152600401610112906145fc565b60405180910390fd5b6101256000612f81565b565b60008060009054906101000a900473ffffffffffffffffffffffffffffffffffffffff16905090565b600080600660009054906101000a900473ffffffffffffffffffffffffffffffffffffffff1673ffffffffffffffffffffffffffffffffffffffff1663a9059cbb601960009054906101000a900473ffffffffffffffffffffffffffffffffffffffff1669baeae59443ce1e0ea6f06040518363ffffffff1660e01b81526004016101dc929190613ee4565b602060405180830381600087803b1580156101f657600080fd5b505af115801561020a573d6000803e3d6000fd5b505050506040513d601f19601f8201168201806040525081019061022e9190613844565b50601660009054906101000a900473ffffffffffffffffffffffffffffffffffffffff1673ffffffffffffffffffffffffffffffffffffffff16638a655c10600360009054906101000a900473ffffffffffffffffffffffffffffffffffffffff1630680c2ff756ff9bc4daf06040518463ffffffff1660e01b81526004016102b9939291906143da565b602060405180830381600087803b1580156102d357600080fd5b505af11580156102e7573d6000803e3d6000fd5b505050506040513d601f19601f8201168201806040525081019061030b91906138ae565b506103eb604051806060016040528060228152602001614c3960229139670de0b6b3a7640000600360009054906101000a900473ffffffffffffffffffffffffffffffffffffffff1673ffffffffffffffffffffffffffffffffffffffff166370a08231306040518263ffffffff1660e01b815260040161038c9190613d8c565b60206040518083038186803b1580156103a457600080fd5b505afa1580156103b8573d6000803e3d6000fd5b505050506040513d601f19601f820116820180604052508101906103dc91906138ae565b6103e6919061470f565b613045565b61054e600e60009054906101000a900473ffffffffffffffffffffffffffffffffffffffff16640a6aa6f6c0600460009054906101000a900473ffffffffffffffffffffffffffffffffffffffff16600260009054906101000a900473ffffffffffffffffffffffffffffffffffffffff1660006040516024016104739594939291906142fd565b6040516020818303038152906040527ff5fd5db1000000000000000000000000000000000000000000000000000000007bffffffffffffffffffffffffffffffffffffffffffffffffffffffff19166020820180517bffffffffffffffffffffffffffffffffffffffffffffffffffffffff83818316178352505050506040518060400160405280601181526020017f556e697377617020555344432f57425443000000000000000000000000000000815250601760009054906101000a900473ffffffffffffffffffffffffffffffffffffffff166130e1565b915061067f6040518060400160405280601781526020017f31302e2d20554e4953574150202d2d2d20574254433a200000000000000000008152506305f5e100600260009054906101000a900473ffffffffffffffffffffffffffffffffffffffff1673ffffffffffffffffffffffffffffffffffffffff166370a08231306040518263ffffffff1660e01b81526004016105e99190613d8c565b60206040518083038186803b15801561060157600080fd5b505afa158015610615573d6000803e3d6000fd5b505050506040513d601f19601f8201168201806040525081019061063991906138ae565b610643919061470f565b6040518060400160405280600281526020017f2d2d00000000000000000000000000000000000000000000000000000000000081525085613210565b6000732109f78b46a789125598f5ad2b7f243751c2934d90506107d681600460009054906101000a900473ffffffffffffffffffffffffffffffffffffffff16600260009054906101000a900473ffffffffffffffffffffffffffffffffffffffff1664b115c42bfb6040516024016106fb9493929190613e23565b6040516020818303038152906040527f903cb800000000000000000000000000000000000000000000000000000000007bffffffffffffffffffffffffffffffffffffffffffffffffffffffff19166020820180517bffffffffffffffffffffffffffffffffffffffffffffffffffffffff83818316178352505050506040518060400160405280600e81526020017f446f646f20555344432f57425443000000000000000000000000000000000000815250601760009054906101000a900473ffffffffffffffffffffffffffffffffffffffff166130e1565b925061085d6040518060400160405280601481526020017f31312e2d20444f444f202d2d2d20574254433a200000000000000000000000008152506305f5e10085610821919061470f565b6040518060400160405280600281526020017f2d2d00000000000000000000000000000000000000000000000000000000000081525086613210565b600460009054906101000a900473ffffffffffffffffffffffffffffffffffffffff1673ffffffffffffffffffffffffffffffffffffffff1663a9059cbb601960009054906101000a900473ffffffffffffffffffffffffffffffffffffffff1664e52b3a1ed06040518363ffffffff1660e01b81526004016108e1929190613f36565b602060405180830381600087803b1580156108fb57600080fd5b505af115801561090f573d6000803e3d6000fd5b505050506040513d601f19601f820116820180604052508101906109339190613844565b50600080601760009054906101000a900473ffffffffffffffffffffffffffffffffffffffff1673ffffffffffffffffffffffffffffffffffffffff16600260009054906101000a900473ffffffffffffffffffffffffffffffffffffffff1630637317ab016040516024016109ab939291906143a3565b6040516020818303038152906040527f8a655c10000000000000000000000000000000000000000000000000000000007bffffffffffffffffffffffffffffffffffffffffffffffffffffffff19166020820180517bffffffffffffffffffffffffffffffffffffffffffffffffffffffff8381831617835250505050604051610a359190613d75565b6000604051808303816000865af19150503d8060008114610a72576040519150601f19603f3d011682016040523d82523d6000602084013e610a77565b606091505b509150915081610a9757610a92610a8d826132b2565b61331d565b610aae565b80806020019051810190610aab91906138ae565b93505b81610aee576040517f08c379a0000000000000000000000000000000000000000000000000000000008152600401610ae59061461c565b60405180910390fd5b610b3c6040518060400160405280601a81526020017f31322e2d206d7945584348414e4745202d2d2d20574254433a200000000000008152506305f5e10086610b37919061470f565b613045565b610c17604051806060016040528060238152602001614b91602391396305f5e100600260009054906101000a900473ffffffffffffffffffffffffffffffffffffffff1673ffffffffffffffffffffffffffffffffffffffff166370a08231306040518263ffffffff1660e01b8152600401610bb89190613d8c565b60206040518083038186803b158015610bd057600080fd5b505afa158015610be4573d6000803e3d6000fd5b505050506040513d601f19601f82011682018060405250810190610c0891906138ae565b610c12919061470f565b613045565b610d79601060009054906101000a900473ffffffffffffffffffffffffffffffffffffffff16630a6b5444600260009054906101000a900473ffffffffffffffffffffffffffffffffffffffff16600360009054906101000a900473ffffffffffffffffffffffffffffffffffffffff166001604051602401610c9e959493929190613fcd565b6040516020818303038152906040527f7b4537b1000000000000000000000000000000000000000000000000000000007bffffffffffffffffffffffffffffffffffffffffffffffffffffffff19166020820180517bffffffffffffffffffffffffffffffffffffffffffffffffffffffff83818316178352505050506040518060400160405280601581526020017f42616c616e63657220574254432f455448202831290000000000000000000000815250601760009054906101000a900473ffffffffffffffffffffffffffffffffffffffff166130e1565b9450610db0604051806060016040528060218152602001614c5b60219139670de0b6b3a764000087610dab919061470f565b613045565b610de5604051806060016040528060328152602001614bb460329139670de0b6b3a764000047610de0919061470f565b613045565b610f47601160009054906101000a900473ffffffffffffffffffffffffffffffffffffffff16630fa0fe66600260009054906101000a900473ffffffffffffffffffffffffffffffffffffffff16600360009054906101000a900473ffffffffffffffffffffffffffffffffffffffff166001604051602401610e6c959493929190614020565b6040516020818303038152906040527f7b4537b1000000000000000000000000000000000000000000000000000000007bffffffffffffffffffffffffffffffffffffffffffffffffffffffff19166020820180517bffffffffffffffffffffffffffffffffffffffffffffffffffffffff83818316178352505050506040518060400160405280601581526020017f42616c616e63657220574254432f455448202832290000000000000000000000815250601760009054906101000a900473ffffffffffffffffffffffffffffffffffffffff166130e1565b9450610f7e604051806060016040528060218152602001614c1860219139670de0b6b3a764000087610f79919061470f565b613045565b610fb3604051806060016040528060328152602001614be660329139670de0b6b3a764000047610fae919061470f565b613045565b611115600e60009054906101000a900473ffffffffffffffffffffffffffffffffffffffff166314d6a889600260009054906101000a900473ffffffffffffffffffffffffffffffffffffffff16600360009054906101000a900473ffffffffffffffffffffffffffffffffffffffff16600160405160240161103a9594939291906142aa565b6040516020818303038152906040527ff5fd5db1000000000000000000000000000000000000000000000000000000007bffffffffffffffffffffffffffffffffffffffffffffffffffffffff19166020820180517bffffffffffffffffffffffffffffffffffffffffffffffffffffffff83818316178352505050506040518060400160405280601081526020017f556e697377617020574254432f45544800000000000000000000000000000000815250601760009054906101000a900473ffffffffffffffffffffffffffffffffffffffff166130e1565b94506111696040518060400160405280601581526020017f31352e2d20554e4953574150202d2d204554483a200000000000000000000000815250670de0b6b3a764000087611164919061470f565b613045565b6112cb600d60009054906101000a900473ffffffffffffffffffffffffffffffffffffffff16632c482623600260009054906101000a900473ffffffffffffffffffffffffffffffffffffffff16600360009054906101000a900473ffffffffffffffffffffffffffffffffffffffff1660016040516024016111f0959493929190614350565b6040516020818303038152906040527ff5fd5db1000000000000000000000000000000000000000000000000000000007bffffffffffffffffffffffffffffffffffffffffffffffffffffffff19166020820180517bffffffffffffffffffffffffffffffffffffffffffffffffffffffff83818316178352505050506040518060400160405280601281526020017f53757368697377617020574254432f4554480000000000000000000000000000815250601760009054906101000a900473ffffffffffffffffffffffffffffffffffffffff166130e1565b9450611302604051806060016040528060218152602001614c7c60219139670de0b6b3a7640000876112fd919061470f565b613045565b600260009054906101000a900473ffffffffffffffffffffffffffffffffffffffff1673ffffffffffffffffffffffffffffffffffffffff1663a9059cbb601960009054906101000a900473ffffffffffffffffffffffffffffffffffffffff16600260009054906101000a900473ffffffffffffffffffffffffffffffffffffffff1673ffffffffffffffffffffffffffffffffffffffff166370a08231306040518263ffffffff1660e01b81526004016113be9190613d8c565b60206040518083038186803b1580156113d657600080fd5b505afa1580156113ea573d6000803e3d6000fd5b505050506040513d601f19601f8201168201806040525081019061140e91906138ae565b6040518363ffffffff1660e01b815260040161142b929190613f5f565b602060405180830381600087803b15801561144557600080fd5b505af1158015611459573d6000803e3d6000fd5b505050506040513d601f19601f8201168201806040525081019061147d9190613844565b50600080601760009054906101000a900473ffffffffffffffffffffffffffffffffffffffff1673ffffffffffffffffffffffffffffffffffffffff16600360009054906101000a900473ffffffffffffffffffffffffffffffffffffffff1630680db812c7e3952177506040516024016114fa9392919061447f565b6040516020818303038152906040527f8a655c10000000000000000000000000000000000000000000000000000000007bffffffffffffffffffffffffffffffffffffffffffffffffffffffff19166020820180517bffffffffffffffffffffffffffffffffffffffffffffffffffffffff83818316178352505050506040516115849190613d75565b6000604051808303816000865af19150503d80600081146115c1576040519150601f19603f3d011682016040523d82523d6000602084013e6115c6565b606091505b5091509150816115e6576115e16115dc826132b2565b61331d565b6115fd565b808060200190518101906115fa91906138ae565b95505b8161163d576040517f08c379a00000000000000000000000000000000000000000000000000000000081526004016116349061461c565b60405180910390fd5b61168f6040518060400160405280601a81526020017f31372e2d206d7945584348414e4745202d2d2d20574554483a20000000000000815250670de0b6b3a76400008861168a919061470f565b613045565b6117d5600c60009054906101000a900473ffffffffffffffffffffffffffffffffffffffff16600460009054906101000a900473ffffffffffffffffffffffffffffffffffffffff166505b258e638766001600260006040516024016116fa969594939291906140fd565b6040516020818303038152906040527f39f2c566000000000000000000000000000000000000000000000000000000007bffffffffffffffffffffffffffffffffffffffffffffffffffffffff19166020820180517bffffffffffffffffffffffffffffffffffffffffffffffffffffffff83818316178352505050506040518060400160405280600f81526020017f437572766520555344432f555344540000000000000000000000000000000000815250601760009054906101000a900473ffffffffffffffffffffffffffffffffffffffff166130e1565b506118cd6040518060400160405280601581526020017f31382e2d204355525645202d2d2d20555344543a200000000000000000000000815250620f4240600160009054906101000a900473ffffffffffffffffffffffffffffffffffffffff1673ffffffffffffffffffffffffffffffffffffffff166370a08231306040518263ffffffff1660e01b815260040161186e9190613d8c565b60206040518083038186803b15801561188657600080fd5b505afa15801561189a573d6000803e3d6000fd5b505050506040513d601f19601f820116820180604052508101906118be91906138ae565b6118c8919061470f565b613045565b611a2d601460009054906101000a900473ffffffffffffffffffffffffffffffffffffffff16641236923795600160009054906101000a900473ffffffffffffffffffffffffffffffffffffffff16600360009054906101000a900473ffffffffffffffffffffffffffffffffffffffff1660405160240161195294939291906140b8565b6040516020818303038152906040527f9e547853000000000000000000000000000000000000000000000000000000007bffffffffffffffffffffffffffffffffffffffffffffffffffffffff19166020820180517bffffffffffffffffffffffffffffffffffffffffffffffffffffffff83818316178352505050506040518060400160405280601681526020017f43524f2050726f746f636f6c20555344542f5745544800000000000000000000815250601760009054906101000a900473ffffffffffffffffffffffffffffffffffffffff166130e1565b9650611a816040518060400160405280601a81526020017f31392e2d2043524f2050726f746f636f6c202d20574554483a20000000000000815250670de0b6b3a764000089611a7c919061470f565b613045565b611ad5600160009054906101000a900473ffffffffffffffffffffffffffffffffffffffff16601960009054906101000a900473ffffffffffffffffffffffffffffffffffffffff1664da8eda9b046133b6565b601660009054906101000a900473ffffffffffffffffffffffffffffffffffffffff1673ffffffffffffffffffffffffffffffffffffffff16638a655c10600360009054906101000a900473ffffffffffffffffffffffffffffffffffffffff1630680d012705a65bc0bc516040518463ffffffff1660e01b8152600401611b5f93929190614448565b602060405180830381600087803b158015611b7957600080fd5b505af1158015611b8d573d6000803e3d6000fd5b505050506040513d601f19601f82011682018060405250810190611bb191906138ae565b9650611c056040518060400160405280601a81526020017f32302e2d206d7945584348414e4745202d2d2d20574554483a20000000000000815250670de0b6b3a764000089611c00919061470f565b613045565b611d69600d60009054906101000a900473ffffffffffffffffffffffffffffffffffffffff166502226522838b600160009054906101000a900473ffffffffffffffffffffffffffffffffffffffff16600360009054906101000a900473ffffffffffffffffffffffffffffffffffffffff166001604051602401611c8e95949392919061415e565b6040516020818303038152906040527ff5fd5db1000000000000000000000000000000000000000000000000000000007bffffffffffffffffffffffffffffffffffffffffffffffffffffffff19166020820180517bffffffffffffffffffffffffffffffffffffffffffffffffffffffff83818316178352505050506040518060400160405280601281526020017f53757368697377617020555344542f4554480000000000000000000000000000815250601760009054906101000a900473ffffffffffffffffffffffffffffffffffffffff166130e1565b9650611dbd6040518060400160405280601881526020017f32312e202d205355534849574150202d2d2d204554483a200000000000000000815250670de0b6b3a764000089611db8919061470f565b613045565b611f21600e60009054906101000a900473ffffffffffffffffffffffffffffffffffffffff166502a1e32208a4600160009054906101000a900473ffffffffffffffffffffffffffffffffffffffff16600360009054906101000a900473ffffffffffffffffffffffffffffffffffffffff166001604051602401611e46959493929190614204565b6040516020818303038152906040527ff5fd5db1000000000000000000000000000000000000000000000000000000007bffffffffffffffffffffffffffffffffffffffffffffffffffffffff19166020820180517bffffffffffffffffffffffffffffffffffffffffffffffffffffffff83818316178352505050506040518060400160405280601081526020017f556e697377617020555344542f45544800000000000000000000000000000000815250601760009054906101000a900473ffffffffffffffffffffffffffffffffffffffff166130e1565b9650611f756040518060400160405280601781526020017f32322e202d20554e4953574150202d2d2d204554483a20000000000000000000815250670de0b6b3a764000089611f70919061470f565b613045565b6120d5601460009054906101000a900473ffffffffffffffffffffffffffffffffffffffff166417700eabe0600460009054906101000a900473ffffffffffffffffffffffffffffffffffffffff16600360009054906101000a900473ffffffffffffffffffffffffffffffffffffffff16604051602401611ffa9493929190614073565b6040516020818303038152906040527f9e547853000000000000000000000000000000000000000000000000000000007bffffffffffffffffffffffffffffffffffffffffffffffffffffffff19166020820180517bffffffffffffffffffffffffffffffffffffffffffffffffffffffff83818316178352505050506040518060400160405280601681526020017f43524f2050726f746f636f6c20555344432f5745544800000000000000000000815250601760009054906101000a900473ffffffffffffffffffffffffffffffffffffffff166130e1565b96506121296040518060400160405280601c81526020017f32332e2d2043524f2050726f746f636f6c202d2d2d20574554483a2000000000815250670de0b6b3a764000089612124919061470f565b613045565b612289601260009054906101000a900473ffffffffffffffffffffffffffffffffffffffff166417700eabe1600460009054906101000a900473ffffffffffffffffffffffffffffffffffffffff16600360009054906101000a900473ffffffffffffffffffffffffffffffffffffffff166040516024016121ae9493929190613f88565b6040516020818303038152906040527f7b4537b1000000000000000000000000000000000000000000000000000000007bffffffffffffffffffffffffffffffffffffffffffffffffffffffff19166020820180517bffffffffffffffffffffffffffffffffffffffffffffffffffffffff83818316178352505050506040518060400160405280601181526020017f42616c616e63657220555344432f455448000000000000000000000000000000815250601760009054906101000a900473ffffffffffffffffffffffffffffffffffffffff166130e1565b96506122dd6040518060400160405280601781526020017f32342e2d2042414c414e434552202d2d2d204554483a20000000000000000000815250670de0b6b3a7640000896122d8919061470f565b613045565b60007375c23271661d9d143dcb617222bc4bec783eff34905061243481600460009054906101000a900473ffffffffffffffffffffffffffffffffffffffff16600360009054906101000a900473ffffffffffffffffffffffffffffffffffffffff1664a41066b3266040516024016123599493929190613dde565b6040516020818303038152906040527f903cb800000000000000000000000000000000000000000000000000000000007bffffffffffffffffffffffffffffffffffffffffffffffffffffffff19166020820180517bffffffffffffffffffffffffffffffffffffffffffffffffffffffff83818316178352505050506040518060400160405280600e81526020017f446f646f20555344432f57455448000000000000000000000000000000000000815250601760009054906101000a900473ffffffffffffffffffffffffffffffffffffffff166130e1565b97506124886040518060400160405280601481526020017f32352e2d20444f444f202d2d2d20574554483a20000000000000000000000000815250670de0b6b3a76400008a612483919061470f565b613045565b600460009054906101000a900473ffffffffffffffffffffffffffffffffffffffff1673ffffffffffffffffffffffffffffffffffffffff1663a9059cbb601960009054906101000a900473ffffffffffffffffffffffffffffffffffffffff1664d2f0840ae96040518363ffffffff1660e01b815260040161250c929190613f0d565b602060405180830381600087803b15801561252657600080fd5b505af115801561253a573d6000803e3d6000fd5b505050506040513d601f19601f8201168201806040525081019061255e9190613844565b50601660009054906101000a900473ffffffffffffffffffffffffffffffffffffffff1673ffffffffffffffffffffffffffffffffffffffff16638a655c10600360009054906101000a900473ffffffffffffffffffffffffffffffffffffffff1630680c87dba55c31643adc6040518463ffffffff1660e01b81526004016125e993929190614411565b602060405180830381600087803b15801561260357600080fd5b505af1158015612617573d6000803e3d6000fd5b505050506040513d601f19601f8201168201806040525081019061263b91906138ae565b975061268f6040518060400160405280601a81526020017f32362e2d206d7945584348414e4745202d2d2d20574554483a20000000000000815250670de0b6b3a76400008a61268a919061470f565b613045565b6127f3600e60009054906101000a900473ffffffffffffffffffffffffffffffffffffffff16650290419acc9c600460009054906101000a900473ffffffffffffffffffffffffffffffffffffffff16600360009054906101000a900473ffffffffffffffffffffffffffffffffffffffff1660016040516024016127189594939291906141b1565b6040516020818303038152906040527ff5fd5db1000000000000000000000000000000000000000000000000000000007bffffffffffffffffffffffffffffffffffffffffffffffffffffffff19166020820180517bffffffffffffffffffffffffffffffffffffffffffffffffffffffff83818316178352505050506040518060400160405280601081526020017f556e697377617020555344432f45544800000000000000000000000000000000815250601760009054906101000a900473ffffffffffffffffffffffffffffffffffffffff166130e1565b97506128476040518060400160405280601681526020017f32372e2d20554e4953574150202d2d2d204554483a2000000000000000000000815250670de0b6b3a76400008a612842919061470f565b613045565b6129ab600d60009054906101000a900473ffffffffffffffffffffffffffffffffffffffff1665031ce1f2d3e3600460009054906101000a900473ffffffffffffffffffffffffffffffffffffffff16600360009054906101000a900473ffffffffffffffffffffffffffffffffffffffff1660016040516024016128d0959493929190614257565b6040516020818303038152906040527ff5fd5db1000000000000000000000000000000000000000000000000000000007bffffffffffffffffffffffffffffffffffffffffffffffffffffffff19166020820180517bffffffffffffffffffffffffffffffffffffffffffffffffffffffff83818316178352505050506040518060400160405280601281526020017f53757368697377617020555344432f4554480000000000000000000000000000815250601760009054906101000a900473ffffffffffffffffffffffffffffffffffffffff166130e1565b97506129ff6040518060400160405280601881526020017f32382e2d20535553484953574150202d2d2d204554483a200000000000000000815250670de0b6b3a76400008a6129fa919061470f565b613045565b600860009054906101000a900473ffffffffffffffffffffffffffffffffffffffff1673ffffffffffffffffffffffffffffffffffffffff1663d0e30db0476040518263ffffffff1660e01b81526004016000604051808303818588803b158015612a6957600080fd5b505af1158015612a7d573d6000803e3d6000fd5b5050505050612b7e6040518060400160405280602081526020017f32392e2d20574554482062616c616e63652028666c6173686c6f676963293a20815250670de0b6b3a7640000600360009054906101000a900473ffffffffffffffffffffffffffffffffffffffff1673ffffffffffffffffffffffffffffffffffffffff166370a08231306040518263ffffffff1660e01b8152600401612b1f9190613d8c565b60206040518083038186803b158015612b3757600080fd5b505afa158015612b4b573d6000803e3d6000fd5b505050506040513d601f19601f82011682018060405250810190612b6f91906138ae565b612b79919061470f565b613045565b600960009054906101000a900473ffffffffffffffffffffffffffffffffffffffff1673ffffffffffffffffffffffffffffffffffffffff1663e8eda9df600360009054906101000a900473ffffffffffffffffffffffffffffffffffffffff1668f443a332b5ad88d6593060006040518563ffffffff1660e01b8152600401612c0b9493929190613e68565b600060405180830381600087803b158015612c2557600080fd5b505af1158015612c39573d6000803e3d6000fd5b50505050600960009054906101000a900473ffffffffffffffffffffffffffffffffffffffff1673ffffffffffffffffffffffffffffffffffffffff166369328dec600360009054906101000a900473ffffffffffffffffffffffffffffffffffffffff1669015f2ed9d578467b65e8306040518463ffffffff1660e01b8152600401612cc893929190613ead565b602060405180830381600087803b158015612ce257600080fd5b505af1158015612cf6573d6000803e3d6000fd5b505050506040513d601f19601f82011682018060405250810190612d1a91906138ae565b50600360009054906101000a900473ffffffffffffffffffffffffffffffffffffffff1673ffffffffffffffffffffffffffffffffffffffff166323b872dd3033600360009054906101000a900473ffffffffffffffffffffffffffffffffffffffff1673ffffffffffffffffffffffffffffffffffffffff166370a08231306040518263ffffffff1660e01b8152600401612db69190613d8c565b60206040518083038186803b158015612dce57600080fd5b505afa158015612de2573d6000803e3d6000fd5b505050506040513d601f19601f82011682018060405250810190612e0691906138ae565b6040518463ffffffff1660e01b8152600401612e2493929190613da7565b602060405180830381600087803b158015612e3e57600080fd5b505af1158015612e52573d6000803e3d6000fd5b505050506040513d601f19601f82011682018060405250810190612e769190613844565b505050505050505050565b612e89612f79565b73ffffffffffffffffffffffffffffffffffffffff16612ea7610127565b73ffffffffffffffffffffffffffffffffffffffff1614612efd576040517f08c379a0000000000000000000000000000000000000000000000000000000008152600401612ef4906145fc565b60405180910390fd5b600073ffffffffffffffffffffffffffffffffffffffff168173ffffffffffffffffffffffffffffffffffffffff161415612f6d576040517f08c379a0000000000000000000000000000000000000000000000000000000008152600401612f64906145bc565b60405180910390fd5b612f7681612f81565b50565b600033905090565b60008060009054906101000a900473ffffffffffffffffffffffffffffffffffffffff169050816000806101000a81548173ffffffffffffffffffffffffffffffffffffffff021916908373ffffffffffffffffffffffffffffffffffffffff1602179055508173ffffffffffffffffffffffffffffffffffffffff168173ffffffffffffffffffffffffffffffffffffffff167f8be0079c531659141344cd1fd0a4f28419497f9722a3daafe3b4186f6b6457e060405160405180910390a35050565b6130dd828260405160240161305b929190614539565b6040516020818303038152906040527f9710a9d0000000000000000000000000000000000000000000000000000000007bffffffffffffffffffffffffffffffffffffffffffffffffffffffff19166020820180517bffffffffffffffffffffffffffffffffffffffffffffffffffffffff838183161783525050505061343c565b5050565b60008060008373ffffffffffffffffffffffffffffffffffffffff168660405161310b9190613d75565b600060405180830381855af49150503d8060008114613146576040519150601f19603f3d011682016040523d82523d6000602084013e61314b565b606091505b509150915081801561315e575060008151115b1561317e578080602001905181019061317791906138ae565b9250613207565b816132065761320161318f826132b2565b6040518060400160405280600281526020017f2d2d000000000000000000000000000000000000000000000000000000000000815250876040518060400160405280600681526020017f6661696c65640000000000000000000000000000000000000000000000000000815250613465565b600080fd5b5b50509392505050565b6132ac8484848460405160240161322a9493929190614569565b6040516020818303038152906040527fa0c4b225000000000000000000000000000000000000000000000000000000007bffffffffffffffffffffffffffffffffffffffffffffffffffffffff19166020820180517bffffffffffffffffffffffffffffffffffffffffffffffffffffffff838183161783525050505061343c565b50505050565b60606044825110156132fb576040518060400160405280601d81526020017f5472616e73616374696f6e2072657665727465642073696c656e746c790000008152509050613318565b60048201915081806020019051810190613315919061386d565b90505b919050565b6133b38160405160240161333191906144b6565b6040516020818303038152906040527f41304fac000000000000000000000000000000000000000000000000000000007bffffffffffffffffffffffffffffffffffffffffffffffffffffffff19166020820180517bffffffffffffffffffffffffffffffffffffffffffffffffffffffff838183161783525050505061343c565b50565b6134378363a9059cbb60e01b84846040516024016133d5929190613f5f565b604051602081830303815290604052907bffffffffffffffffffffffffffffffffffffffffffffffffffffffff19166020820180517bffffffffffffffffffffffffffffffffffffffffffffffffffffffff8381831617835250505050613507565b505050565b60008151905060006a636f6e736f6c652e6c6f679050602083016000808483855afa5050505050565b6135018484848460405160240161347f94939291906144d8565b6040516020818303038152906040527fde68f20a000000000000000000000000000000000000000000000000000000007bffffffffffffffffffffffffffffffffffffffffffffffffffffffff19166020820180517bffffffffffffffffffffffffffffffffffffffffffffffffffffffff838183161783525050505061343c565b50505050565b6000613569826040518060400160405280602081526020017f5361666545524332303a206c6f772d6c6576656c2063616c6c206661696c65648152508573ffffffffffffffffffffffffffffffffffffffff166135ce9092919063ffffffff16565b90506000815111156135c957808060200190518101906135899190613844565b6135c8576040517f08c379a00000000000000000000000000000000000000000000000000000000081526004016135bf9061465c565b60405180910390fd5b5b505050565b60606135dd84846000856135e6565b90509392505050565b60608247101561362b576040517f08c379a0000000000000000000000000000000000000000000000000000000008152600401613622906145dc565b60405180910390fd5b613634856136fa565b613673576040517f08c379a000000000000000000000000000000000000000000000000000000000815260040161366a9061463c565b60405180910390fd5b6000808673ffffffffffffffffffffffffffffffffffffffff16858760405161369c9190613d75565b60006040518083038185875af1925050503d80600081146136d9576040519150601f19603f3d011682016040523d82523d6000602084013e6136de565b606091505b50915091506136ee82828661370d565b92505050949350505050565b600080823b905060008111915050919050565b6060831561371d5782905061376d565b6000835111156137305782518084602001fd5b816040517f08c379a000000000000000000000000000000000000000000000000000000000815260040161376491906144b6565b60405180910390fd5b9392505050565b6000613787613782846146ad565b61467c565b90508281526020810184848401111561379f57600080fd5b6137aa848285614aa9565b509392505050565b6000813590506137c181614b4b565b92915050565b6000815190506137d681614b62565b92915050565b600082601f8301126137ed57600080fd5b81516137fd848260208601613774565b91505092915050565b60008151905061381581614b79565b92915050565b60006020828403121561382d57600080fd5b600061383b848285016137b2565b91505092915050565b60006020828403121561385657600080fd5b6000613864848285016137c7565b91505092915050565b60006020828403121561387f57600080fd5b600082015167ffffffffffffffff81111561389957600080fd5b6138a5848285016137dc565b91505092915050565b6000602082840312156138c057600080fd5b60006138ce84828501613806565b91505092915050565b6138e081614740565b82525050565b60006138f1826146dd565b6138fb81856146f3565b935061390b818560208601614aa9565b80840191505092915050565b613920816147eb565b82525050565b61392f8161480f565b82525050565b61393e81614833565b82525050565b61394d81614857565b82525050565b61395c8161487b565b82525050565b61396b8161489f565b82525050565b61397a816148b1565b82525050565b613989816148c3565b82525050565b613998816148d5565b82525050565b6139a7816148e7565b82525050565b6139b6816148f9565b82525050565b6139c58161490b565b82525050565b6139d48161491d565b82525050565b6139e38161492f565b82525050565b6139f281614941565b82525050565b613a0181614953565b82525050565b613a1081614965565b82525050565b613a1f81614977565b82525050565b613a2e81614989565b82525050565b613a3d8161499b565b82525050565b613a4c816149ad565b82525050565b613a5b816149bf565b82525050565b613a6a816149d1565b82525050565b613a79816149e3565b82525050565b613a88816149f5565b82525050565b613a9781614a07565b82525050565b613aa681614a19565b82525050565b613ab581614a2b565b82525050565b613ac481614a3d565b82525050565b613ad381614a4f565b82525050565b613ae281614a61565b82525050565b613af181614a73565b82525050565b613b0081614a85565b82525050565b613b0f81614a97565b82525050565b6000613b20826146e8565b613b2a81856146fe565b9350613b3a818560208601614aa9565b613b4381614b3a565b840191505092915050565b6000613b5b6026836146fe565b91507f4f776e61626c653a206e6577206f776e657220697320746865207a65726f206160008301527f64647265737300000000000000000000000000000000000000000000000000006020830152604082019050919050565b6000613bc16026836146fe565b91507f416464726573733a20696e73756666696369656e742062616c616e636520666f60008301527f722063616c6c00000000000000000000000000000000000000000000000000006020830152604082019050919050565b6000613c276020836146fe565b91507f4f776e61626c653a2063616c6c6572206973206e6f7420746865206f776e65726000830152602082019050919050565b6000613c676025836146fe565b91507f555344432f57425443207769746864726177616c2066726f6d20706f6f6c206660008301527f61696c65640000000000000000000000000000000000000000000000000000006020830152604082019050919050565b6000613ccd601d836146fe565b91507f416464726573733a2063616c6c20746f206e6f6e2d636f6e74726163740000006000830152602082019050919050565b6000613d0d602a836146fe565b91507f5361666545524332303a204552433230206f7065726174696f6e20646964206e60008301527f6f742073756363656564000000000000000000000000000000000000000000006020830152604082019050919050565b613d6f8161478c565b82525050565b6000613d8182846138e6565b915081905092915050565b6000602082019050613da160008301846138d7565b92915050565b6000606082019050613dbc60008301866138d7565b613dc960208301856138d7565b613dd66040830184613d66565b949350505050565b6000608082019050613df360008301876138d7565b613e006020830186613953565b613e0d6040830185613953565b613e1a6060830184613aac565b95945050505050565b6000608082019050613e3860008301876138d7565b613e456020830186613953565b613e526040830185613953565b613e5f6060830184613aca565b95945050505050565b6000608082019050613e7d60008301876138d7565b613e8a6020830186613a7f565b613e9760408301856138d7565b613ea46060830184613962565b95945050505050565b6000606082019050613ec260008301866138d7565b613ecf6020830185613a9d565b613edc60408301846138d7565b949350505050565b6000604082019050613ef960008301856138d7565b613f066020830184613ae8565b9392505050565b6000604082019050613f2260008301856138d7565b613f2f6020830184613af7565b9392505050565b6000604082019050613f4b60008301856138d7565b613f586020830184613b06565b9392505050565b6000604082019050613f7460008301856138d7565b613f816020830184613d66565b9392505050565b6000608082019050613f9d6000830187613917565b613faa602083018661398f565b613fb76040830185613953565b613fc46060830184613953565b95945050505050565b600060a082019050613fe26000830188613917565b613fef602083018761399e565b613ffc6040830186613953565b6140096060830185613953565b61401660808301846139bc565b9695505050505050565b600060a0820190506140356000830188613917565b6140426020830187613a16565b61404f6040830186613953565b61405c6060830185613953565b61406960808301846139bc565b9695505050505050565b60006080820190506140886000830187613926565b6140956020830186613980565b6140a26040830185613953565b6140af6060830184613953565b95945050505050565b60006080820190506140cd6000830187613926565b6140da6020830186613ad9565b6140e76040830185613953565b6140f46060830184613953565b95945050505050565b600060c0820190506141126000830189613935565b61411f6020830188613953565b61412c6040830187613a8e565b61413960608301866139bc565b6141466080830185613a43565b61415360a0830184613971565b979650505050505050565b600060a0820190506141736000830188613944565b61418060208301876139e9565b61418d6040830186613953565b61419a6060830185613953565b6141a760808301846139bc565b9695505050505050565b600060a0820190506141c66000830188613944565b6141d36020830187613a25565b6141e06040830186613953565b6141ed6060830185613953565b6141fa60808301846139bc565b9695505050505050565b600060a0820190506142196000830188613944565b6142266020830187613a34565b6142336040830186613953565b6142406060830185613953565b61424d60808301846139bc565b9695505050505050565b600060a08201905061426c6000830188613944565b6142796020830187613a52565b6142866040830186613953565b6142936060830185613953565b6142a060808301846139bc565b9695505050505050565b600060a0820190506142bf6000830188613944565b6142cc6020830187613a61565b6142d96040830186613953565b6142e66060830185613953565b6142f360808301846139bc565b9695505050505050565b600060a0820190506143126000830188613944565b61431f6020830187613a70565b61432c6040830186613953565b6143396060830185613953565b6143466080830184613971565b9695505050505050565b600060a0820190506143656000830188613944565b6143726020830187613abb565b61437f6040830186613953565b61438c6060830185613953565b61439960808301846139bc565b9695505050505050565b60006060820190506143b86000830186613953565b6143c560208301856138d7565b6143d260408301846139ad565b949350505050565b60006060820190506143ef6000830186613953565b6143fc60208301856138d7565b61440960408301846139cb565b949350505050565b60006060820190506144266000830186613953565b61443360208301856138d7565b61444060408301846139da565b949350505050565b600060608201905061445d6000830186613953565b61446a60208301856138d7565b61447760408301846139f8565b949350505050565b60006060820190506144946000830186613953565b6144a160208301856138d7565b6144ae6040830184613a07565b949350505050565b600060208201905081810360008301526144d08184613b15565b905092915050565b600060808201905081810360008301526144f28187613b15565b905081810360208301526145068186613b15565b9050818103604083015261451a8185613b15565b9050818103606083015261452e8184613b15565b905095945050505050565b600060408201905081810360008301526145538185613b15565b90506145626020830184613d66565b9392505050565b600060808201905081810360008301526145838187613b15565b90506145926020830186613d66565b81810360408301526145a48185613b15565b90506145b36060830184613d66565b95945050505050565b600060208201905081810360008301526145d581613b4e565b9050919050565b600060208201905081810360008301526145f581613bb4565b9050919050565b6000602082019050818103600083015261461581613c1a565b9050919050565b6000602082019050818103600083015261463581613c5a565b9050919050565b6000602082019050818103600083015261465581613cc0565b9050919050565b6000602082019050818103600083015261467581613d00565b9050919050565b6000604051905081810181811067ffffffffffffffff821117156146a3576146a2614b0b565b5b8060405250919050565b600067ffffffffffffffff8211156146c8576146c7614b0b565b5b601f19601f8301169050602081019050919050565b600081519050919050565b600081519050919050565b600081905092915050565b600082825260208201905092915050565b600061471a8261478c565b91506147258361478c565b92508261473557614734614adc565b5b828204905092915050565b600061474b8261476c565b9050919050565b60008115159050919050565b600061ffff82169050919050565b600073ffffffffffffffffffffffffffffffffffffffff82169050919050565b6000819050919050565b600063ffffffff82169050919050565b600064ffffffffff82169050919050565b600065ffffffffffff82169050919050565b600068ffffffffffffffffff82169050919050565b600060ff82169050919050565b60006147f6826147fd565b9050919050565b60006148088261476c565b9050919050565b600061481a82614821565b9050919050565b600061482c8261476c565b9050919050565b600061483e82614845565b9050919050565b60006148508261476c565b9050919050565b600061486282614869565b9050919050565b60006148748261476c565b9050919050565b60006148868261488d565b9050919050565b60006148988261476c565b9050919050565b60006148aa8261475e565b9050919050565b60006148bc826147de565b9050919050565b60006148ce826147a6565b9050919050565b60006148e0826147a6565b9050919050565b60006148f282614796565b9050919050565b600061490482614796565b9050919050565b6000614916826147de565b9050919050565b60006149288261478c565b9050919050565b600061493a8261478c565b9050919050565b600061494c826147b7565b9050919050565b600061495e8261478c565b9050919050565b6000614970826147c9565b9050919050565b600061498282614796565b9050919050565b6000614994826147b7565b9050919050565b60006149a6826147b7565b9050919050565b60006149b8826147de565b9050919050565b60006149ca826147b7565b9050919050565b60006149dc82614796565b9050919050565b60006149ee826147a6565b9050919050565b6000614a008261478c565b9050919050565b6000614a12826147b7565b9050919050565b6000614a248261478c565b9050919050565b6000614a36826147a6565b9050919050565b6000614a4882614796565b9050919050565b6000614a5a826147a6565b9050919050565b6000614a6c826147a6565b9050919050565b6000614a7e8261478c565b9050919050565b6000614a908261478c565b9050919050565b6000614aa28261478c565b9050919050565b60005b83811015614ac7578082015181840152602081019050614aac565b83811115614ad6576000848401525b50505050565b7f4e487b7100000000000000000000000000000000000000000000000000000000600052601260045260246000fd5b7f4e487b7100000000000000000000000000000000000000000000000000000000600052604160045260246000fd5b6000601f19601f8301169050919050565b614b5481614740565b8114614b5f57600080fd5b50565b614b6b81614752565b8114614b7657600080fd5b50565b614b828161478c565b8114614b8d57600080fd5b5056fe5f5f5f31322e312e2d20574254432062616c616e636520616674657220737761703a205f5f5f31332e312e2d204554482062616c616e636520616674657220636f6e76657273696f6e2066726f6d20574554483a205f5f5f31342e312e2d204554482062616c616e636520616674657220636f6e76657273696f6e2066726f6d20574554483a2031342e2d2042414c414e434552202d2d2d20326e64205745544820737761703a20392e202d206d7945584348414e4745202d2d2d20574554482062616c616e63653a2031332e2d2042414c414e434552202d2d2d20317374205745544820737761703a2031362e2d20535553484953574150202d2d2d204554482072656365697665643a20a2646970667358221220e11ea2a0444ca082628656496c2caf2bd8656212a6507f2b73d240cfb9654a7b64736f6c63430008000033",
  "linkReferences": {},
  "deployedLinkReferences": {}
}