{
  "_format": "hh-sol-artifact-1",
  "contractName": "Flashloaner",
  "sourceName": "contracts/core/Flashloaner.sol",
  "abi": [
    {
      "inputs": [
        {
          "internalType": "address",
          "name": "_myExchange",
          "type": "address"
        },
        {
          "internalType": "address",
          "name": "_revengeOfTheFlash",
          "type": "address"
        },
        {
          "internalType": "address",
          "name": "_offchainRelayer",
          "type": "address"
        }
      ],
      "stateMutability": "nonpayable",
      "type": "constructor"
    },
    {
      "anonymous": false,
      "inputs": [
        {
          "indexed": true,
          "internalType": "address",
          "name": "previousOwner",
          "type": "address"
        },
        {
          "indexed": true,
          "internalType": "address",
          "name": "newOwner",
          "type": "address"
        }
      ],
      "name": "OwnershipTransferred",
      "type": "event"
    },
    {
      "inputs": [
        {
          "internalType": "uint256",
          "name": "_borrowed",
          "type": "uint256"
        }
      ],
      "name": "execute",
      "outputs": [],
      "stateMutability": "nonpayable",
      "type": "function"
    },
    {
      "inputs": [],
      "name": "owner",
      "outputs": [
        {
          "internalType": "address",
          "name": "",
          "type": "address"
        }
      ],
      "stateMutability": "view",
      "type": "function"
    },
    {
      "inputs": [],
      "name": "renounceOwnership",
      "outputs": [],
      "stateMutability": "nonpayable",
      "type": "function"
    },
    {
      "inputs": [
        {
          "internalType": "contract Exchange",
          "name": "_myExchange",
          "type": "address"
        }
      ],
      "name": "setExchange",
      "outputs": [],
      "stateMutability": "nonpayable",
      "type": "function"
    },
    {
      "inputs": [
        {
          "internalType": "address",
          "name": "newOwner",
          "type": "address"
        }
      ],
      "name": "transferOwnership",
      "outputs": [],
      "stateMutability": "nonpayable",
      "type": "function"
    },
    {
      "stateMutability": "payable",
      "type": "receive"
    }
  ],
  "bytecode": "0x608060405273dac17f958d2ee523a2206206994597c13d831ec7600160006101000a81548173ffffffffffffffffffffffffffffffffffffffff021916908373ffffffffffffffffffffffffffffffffffffffff160217905550732260fac5e5542a773aa44fbcfedf7c193bc2c599600260006101000a81548173ffffffffffffffffffffffffffffffffffffffff021916908373ffffffffffffffffffffffffffffffffffffffff16021790555073c02aaa39b223fe8d0a0e5c4f27ead9083c756cc2600360006101000a81548173ffffffffffffffffffffffffffffffffffffffff021916908373ffffffffffffffffffffffffffffffffffffffff16021790555073a0b86991c6218b36c1d19d4a2e9eb0ce3606eb48600460006101000a81548173ffffffffffffffffffffffffffffffffffffffff021916908373ffffffffffffffffffffffffffffffffffffffff160217905550731f573d6fb3f13d689ff844b4ce37794d79a7ff1c600560006101000a81548173ffffffffffffffffffffffffffffffffffffffff021916908373ffffffffffffffffffffffffffffffffffffffff1602179055506e085d4780b73119b644ae5ecd22b376600660006101000a81548173ffffffffffffffffffffffffffffffffffffffff021916908373ffffffffffffffffffffffffffffffffffffffff16021790555073eeeeeeeeeeeeeeeeeeeeeeeeeeeeeeeeeeeeeeee600760006101000a81548173ffffffffffffffffffffffffffffffffffffffff021916908373ffffffffffffffffffffffffffffffffffffffff16021790555073c02aaa39b223fe8d0a0e5c4f27ead9083c756cc2600860006101000a81548173ffffffffffffffffffffffffffffffffffffffff021916908373ffffffffffffffffffffffffffffffffffffffff160217905550737d2768de32b0b80b7a3454c06bdac94a69ddc7a9600960006101000a81548173ffffffffffffffffffffffffffffffffffffffff021916908373ffffffffffffffffffffffffffffffffffffffff1602179055507352ae12abe5d8bd778bd5397f99ca900624cfadd4600a60006101000a81548173ffffffffffffffffffffffffffffffffffffffff021916908373ffffffffffffffffffffffffffffffffffffffff1602179055507345f783cce6b7ff23b2ab2d70e416cdb7d6055f51600b60006101000a81548173ffffffffffffffffffffffffffffffffffffffff021916908373ffffffffffffffffffffffffffffffffffffffff16021790555073bebc44782c7db0a1a60cb6fe97d0b483032ff1c7600c60006101000a81548173ffffffffffffffffffffffffffffffffffffffff021916908373ffffffffffffffffffffffffffffffffffffffff16021790555073d9e1ce17f2641f24ae83637ab66a2cca9c378b9f600d60006101000a81548173ffffffffffffffffffffffffffffffffffffffff021916908373ffffffffffffffffffffffffffffffffffffffff160217905550737a250d5630b4cf539739df2c5dacb4c659f2488d600e60006101000a81548173ffffffffffffffffffffffffffffffffffffffff021916908373ffffffffffffffffffffffffffffffffffffffff160217905550600a60009054906101000a900473ffffffffffffffffffffffffffffffffffffffff1673ffffffffffffffffffffffffffffffffffffffff1663bb34534c6040518163ffffffff1660e01b8152600401620005009062000a3e565b602060405180830381600087803b1580156200051b57600080fd5b505af115801562000530573d6000803e3d6000fd5b505050506040513d601f19601f8201168201806040525081019062000556919062000996565b600f60006101000a81548173ffffffffffffffffffffffffffffffffffffffff021916908373ffffffffffffffffffffffffffffffffffffffff16021790555073221bf20c2ad9e5d7ec8a9d1991d8e2edcfcb9d6c601060006101000a81548173ffffffffffffffffffffffffffffffffffffffff021916908373ffffffffffffffffffffffffffffffffffffffff160217905550731eff8af5d577060ba4ac8a29a13525bb0ee2a3d5601160006101000a81548173ffffffffffffffffffffffffffffffffffffffff021916908373ffffffffffffffffffffffffffffffffffffffff160217905550738a649274e4d777ffc6851f13d23a86bbfa2f2fbf601260006101000a81548173ffffffffffffffffffffffffffffffffffffffff021916908373ffffffffffffffffffffffffffffffffffffffff16021790555073a356867fdcea8e71aeaf87805808803806231fdc601360006101000a81548173ffffffffffffffffffffffffffffffffffffffff021916908373ffffffffffffffffffffffffffffffffffffffff16021790555073ceb90e4c17d626be0facd78b79c9c87d7ca181b3601460006101000a81548173ffffffffffffffffffffffffffffffffffffffff021916908373ffffffffffffffffffffffffffffffffffffffff16021790555073057835ad21a177dbdd3090bb1cae03eacf78fc6d601560006101000a81548173ffffffffffffffffffffffffffffffffffffffff021916908373ffffffffffffffffffffffffffffffffffffffff160217905550348015620007a157600080fd5b5060405162003097380380620030978339818101604052810190620007c79190620009c2565b620007e7620007db620008b360201b60201c565b620008bb60201b60201c565b82601760006101000a81548173ffffffffffffffffffffffffffffffffffffffff021916908373ffffffffffffffffffffffffffffffffffffffff16021790555081601860006101000a81548173ffffffffffffffffffffffffffffffffffffffff021916908373ffffffffffffffffffffffffffffffffffffffff16021790555080601960006101000a81548173ffffffffffffffffffffffffffffffffffffffff021916908373ffffffffffffffffffffffffffffffffffffffff16021790555050505062000aa7565b600033905090565b60008060009054906101000a900473ffffffffffffffffffffffffffffffffffffffff169050816000806101000a81548173ffffffffffffffffffffffffffffffffffffffff021916908373ffffffffffffffffffffffffffffffffffffffff1602179055508173ffffffffffffffffffffffffffffffffffffffff168173ffffffffffffffffffffffffffffffffffffffff167f8be0079c531659141344cd1fd0a4f28419497f9722a3daafe3b4186f6b6457e060405160405180910390a35050565b600081519050620009908162000a8d565b92915050565b600060208284031215620009a957600080fd5b6000620009b9848285016200097f565b91505092915050565b600080600060608486031215620009d857600080fd5b6000620009e8868287016200097f565b9350506020620009fb868287016200097f565b925050604062000a0e868287016200097f565b9150509250925092565b7f42616e636f724e6574776f726b00000000000000000000000000000000000000815250565b600060208201905062000a546000830162000a18565b919050565b600062000a668262000a6d565b9050919050565b600073ffffffffffffffffffffffffffffffffffffffff82169050919050565b62000a988162000a59565b811462000aa457600080fd5b50565b6125e08062000ab76000396000f3fe60806040526004361061004e5760003560e01c806367b1f5df1461005a578063715018a6146100835780638da5cb5b1461009a578063f2fde38b146100c5578063fe0d94c1146100ee57610055565b3661005557005b600080fd5b34801561006657600080fd5b50610081600480360381019061007c9190611acc565b610117565b005b34801561008f57600080fd5b5061009861015b565b005b3480156100a657600080fd5b506100af6101e3565b6040516100bc9190611e3e565b60405180910390f35b3480156100d157600080fd5b506100ec60048036038101906100e79190611a7a565b61020c565b005b3480156100fa57600080fd5b5061011560048036038101906101109190611b36565b610304565b005b80601660006101000a81548173ffffffffffffffffffffffffffffffffffffffff021916908373ffffffffffffffffffffffffffffffffffffffff16021790555050565b6101636114a1565b73ffffffffffffffffffffffffffffffffffffffff166101816101e3565b73ffffffffffffffffffffffffffffffffffffffff16146101d7576040517f08c379a00000000000000000000000000000000000000000000000000000000081526004016101ce906121e6565b60405180910390fd5b6101e160006114a9565b565b60008060009054906101000a900473ffffffffffffffffffffffffffffffffffffffff16905090565b6102146114a1565b73ffffffffffffffffffffffffffffffffffffffff166102326101e3565b73ffffffffffffffffffffffffffffffffffffffff1614610288576040517f08c379a000000000000000000000000000000000000000000000000000000000815260040161027f906121e6565b60405180910390fd5b600073ffffffffffffffffffffffffffffffffffffffff168173ffffffffffffffffffffffffffffffffffffffff1614156102f8576040517f08c379a00000000000000000000000000000000000000000000000000000000081526004016102ef906121a6565b60405180910390fd5b610301816114a9565b50565b60006060600080651046b4dae7009050600360009054906101000a900473ffffffffffffffffffffffffffffffffffffffff1673ffffffffffffffffffffffffffffffffffffffff1663095ea7b3600960009054906101000a900473ffffffffffffffffffffffffffffffffffffffff167fffffffffffffffffffffffffffffffffffffffffffffffffffffffffffffffff6040518363ffffffff1660e01b81526004016103b3929190611e82565b602060405180830381600087803b1580156103cd57600080fd5b505af11580156103e1573d6000803e3d6000fd5b505050506040513d601f19601f820116820180604052508101906104059190611aa3565b50600960009054906101000a900473ffffffffffffffffffffffffffffffffffffffff1673ffffffffffffffffffffffffffffffffffffffff1663e8eda9df600360009054906101000a900473ffffffffffffffffffffffffffffffffffffffff16873060006040518563ffffffff1660e01b815260040161048a9493929190611ee2565b600060405180830381600087803b1580156104a457600080fd5b505af11580156104b8573d6000803e3d6000fd5b5050505061050e6040518060400160405280601981526020017f322e2d2041415645202d204465706f73697420574554483a2000000000000000815250670de0b6b3a7640000876105099190612299565b61156d565b600960009054906101000a900473ffffffffffffffffffffffffffffffffffffffff1673ffffffffffffffffffffffffffffffffffffffff166369328dec600460009054906101000a900473ffffffffffffffffffffffffffffffffffffffff1683306040518463ffffffff1660e01b815260040161058f93929190611eab565b602060405180830381600087803b1580156105a957600080fd5b505af11580156105bd573d6000803e3d6000fd5b505050506040513d601f19601f820116820180604052508101906105e19190611b5f565b506000600460009054906101000a900473ffffffffffffffffffffffffffffffffffffffff1673ffffffffffffffffffffffffffffffffffffffff166370a08231306040518263ffffffff1660e01b815260040161063f9190611e3e565b60206040518083038186803b15801561065757600080fd5b505afa15801561066b573d6000803e3d6000fd5b505050506040513d601f19601f8201168201806040525081019061068f9190611b5f565b90506106de6040518060400160405280601c81526020017f332e2d2041415645202d2d2d20776974686472617720555344433a2000000000815250620f4240836106d99190612299565b61156d565b600460009054906101000a900473ffffffffffffffffffffffffffffffffffffffff1673ffffffffffffffffffffffffffffffffffffffff1663a9059cbb601960009054906101000a900473ffffffffffffffffffffffffffffffffffffffff1664029aac4bfc6040518363ffffffff1660e01b8152600401610762929190611e59565b602060405180830381600087803b15801561077c57600080fd5b505af1158015610790573d6000803e3d6000fd5b505050506040513d601f19601f820116820180604052508101906107b49190611aa3565b50601760009054906101000a900473ffffffffffffffffffffffffffffffffffffffff1673ffffffffffffffffffffffffffffffffffffffff16600560009054906101000a900473ffffffffffffffffffffffffffffffffffffffff16306851b0e26e3c7e757e8960405160240161082e93929190611fdb565b6040516020818303038152906040527f8a655c10000000000000000000000000000000000000000000000000000000007bffffffffffffffffffffffffffffffffffffffffffffffffffffffff19166020820180517bffffffffffffffffffffffffffffffffffffffffffffffffffffffff83818316178352505050506040516108b89190611e27565b6000604051808303816000865af19150503d80600081146108f5576040519150601f19603f3d011682016040523d82523d6000602084013e6108fa565b606091505b5080955081965050508461091a5761091961091485611609565b611674565b5b8461095a576040517f08c379a000000000000000000000000000000000000000000000000000000000815260040161095190612186565b60405180910390fd5b610a566040518060400160405280601681526020017f342e2d206d7945584348414e4745202d20424e543a2000000000000000000000815250670de0b6b3a7640000600560009054906101000a900473ffffffffffffffffffffffffffffffffffffffff1673ffffffffffffffffffffffffffffffffffffffff166370a08231306040518263ffffffff1660e01b81526004016109f79190611e3e565b60206040518083038186803b158015610a0f57600080fd5b505afa158015610a23573d6000803e3d6000fd5b505050506040513d601f19601f82011682018060405250810190610a479190611b5f565b610a519190612299565b61156d565b610b92600460009054906101000a900473ffffffffffffffffffffffffffffffffffffffff16600560009054906101000a900473ffffffffffffffffffffffffffffffffffffffff1664cdbb2b72c4604051602401610ab793929190612012565b6040516020818303038152906040527fa6e33af3000000000000000000000000000000000000000000000000000000007bffffffffffffffffffffffffffffffffffffffffffffffffffffffff19166020820180517bffffffffffffffffffffffffffffffffffffffffffffffffffffffff83818316178352505050506040518060400160405280600f81526020017f42616e636f7220555344432f424e540000000000000000000000000000000000815250601760009054906101000a900473ffffffffffffffffffffffffffffffffffffffff1661170d565b9250610be66040518060400160405280601481526020017f352e2d2042414e434f52202d2d2d20424e543a20000000000000000000000000815250670de0b6b3a764000085610be19190612299565b61156d565b610cc560405180606001604052806023815260200161258860239139670de0b6b3a7640000600560009054906101000a900473ffffffffffffffffffffffffffffffffffffffff1673ffffffffffffffffffffffffffffffffffffffff166370a08231306040518263ffffffff1660e01b8152600401610c669190611e3e565b60206040518083038186803b158015610c7e57600080fd5b505afa158015610c92573d6000803e3d6000fd5b505050506040513d601f19601f82011682018060405250810190610cb69190611b5f565b610cc09190612299565b61156d565b610ea6600560009054906101000a900473ffffffffffffffffffffffffffffffffffffffff16600760009054906101000a900473ffffffffffffffffffffffffffffffffffffffff16600560009054906101000a900473ffffffffffffffffffffffffffffffffffffffff1673ffffffffffffffffffffffffffffffffffffffff166370a08231306040518263ffffffff1660e01b8152600401610d699190611e3e565b60206040518083038186803b158015610d8157600080fd5b505afa158015610d95573d6000803e3d6000fd5b505050506040513d601f19601f82011682018060405250810190610db99190611b5f565b604051602401610dcb93929190612049565b6040516020818303038152906040527fa6e33af3000000000000000000000000000000000000000000000000000000007bffffffffffffffffffffffffffffffffffffffffffffffffffffffff19166020820180517bffffffffffffffffffffffffffffffffffffffffffffffffffffffff83818316178352505050506040518060400160405280600e81526020017f42616e636f7220424e542f455448000000000000000000000000000000000000815250601760009054906101000a900473ffffffffffffffffffffffffffffffffffffffff1661170d565b9250610efa6040518060400160405280601481526020017f362e2d2042414e434f52202d2d2d204554483a20000000000000000000000000815250670de0b6b3a764000085610ef59190612299565b61156d565b61103f600b60009054906101000a900473ffffffffffffffffffffffffffffffffffffffff16600460009054906101000a900473ffffffffffffffffffffffffffffffffffffffff1664d055d7bec0600160036001604051602401610f6496959493929190611f27565b6040516020818303038152906040527f39f2c566000000000000000000000000000000000000000000000000000000007bffffffffffffffffffffffffffffffffffffffffffffffffffffffff19166020820180517bffffffffffffffffffffffffffffffffffffffffffffffffffffffff83818316178352505050506040518060400160405280600f81526020017f437572766520555344432f545553440000000000000000000000000000000000815250601760009054906101000a900473ffffffffffffffffffffffffffffffffffffffff1661170d565b5061113c6040518060400160405280601481526020017f372e2d204355525645202d2d2d20545553443a20000000000000000000000000815250670de0b6b3a7640000600660009054906101000a900473ffffffffffffffffffffffffffffffffffffffff1673ffffffffffffffffffffffffffffffffffffffff166370a08231306040518263ffffffff1660e01b81526004016110dd9190611e3e565b60206040518083038186803b1580156110f557600080fd5b505afa158015611109573d6000803e3d6000fd5b505050506040513d601f19601f8201168201806040525081019061112d9190611b5f565b6111379190612299565b61156d565b6112a4600d60009054906101000a900473ffffffffffffffffffffffffffffffffffffffff1669025db52248264130cb06600660009054906101000a900473ffffffffffffffffffffffffffffffffffffffff16600360009054906101000a900473ffffffffffffffffffffffffffffffffffffffff1660016040516024016111c9959493929190611f88565b6040516020818303038152906040527ff5fd5db1000000000000000000000000000000000000000000000000000000007bffffffffffffffffffffffffffffffffffffffffffffffffffffffff19166020820180517bffffffffffffffffffffffffffffffffffffffffffffffffffffffff83818316178352505050506040518060400160405280601281526020017f53757368697377617020545553442f4554480000000000000000000000000000815250601760009054906101000a900473ffffffffffffffffffffffffffffffffffffffff1661170d565b925061132f6040518060400160405280601781526020017f382e2d20535553484953574150202d2d2d204554483a20000000000000000000815250670de0b6b3a7640000856112f39190612299565b6040518060400160405280600281526020017f2d2d0000000000000000000000000000000000000000000000000000000000008152508661183c565b600080601860009054906101000a900473ffffffffffffffffffffffffffffffffffffffff1673ffffffffffffffffffffffffffffffffffffffff166040516024016040516020818303038152906040527fdc1494cf000000000000000000000000000000000000000000000000000000007bffffffffffffffffffffffffffffffffffffffffffffffffffffffff19166020820180517bffffffffffffffffffffffffffffffffffffffffffffffffffffffff83818316178352505050506040516113fb9190611e27565b600060405180830381855af49150503d8060008114611436576040519150601f19603f3d011682016040523d82523d6000602084013e61143b565b606091505b5091509150816114575761145661145182611609565b611674565b5b81611497576040517f08c379a000000000000000000000000000000000000000000000000000000000815260040161148e906121c6565b60405180910390fd5b5050505050505050565b600033905090565b60008060009054906101000a900473ffffffffffffffffffffffffffffffffffffffff169050816000806101000a81548173ffffffffffffffffffffffffffffffffffffffff021916908373ffffffffffffffffffffffffffffffffffffffff1602179055508173ffffffffffffffffffffffffffffffffffffffff168173ffffffffffffffffffffffffffffffffffffffff167f8be0079c531659141344cd1fd0a4f28419497f9722a3daafe3b4186f6b6457e060405160405180910390a35050565b6116058282604051602401611583929190612103565b6040516020818303038152906040527f9710a9d0000000000000000000000000000000000000000000000000000000007bffffffffffffffffffffffffffffffffffffffffffffffffffffffff19166020820180517bffffffffffffffffffffffffffffffffffffffffffffffffffffffff83818316178352505050506118de565b5050565b6060604482511015611652576040518060400160405280601d81526020017f5472616e73616374696f6e2072657665727465642073696c656e746c79000000815250905061166f565b6004820191508180602001905181019061166c9190611af5565b90505b919050565b61170a816040516024016116889190612080565b6040516020818303038152906040527f41304fac000000000000000000000000000000000000000000000000000000007bffffffffffffffffffffffffffffffffffffffffffffffffffffffff19166020820180517bffffffffffffffffffffffffffffffffffffffffffffffffffffffff83818316178352505050506118de565b50565b60008060008373ffffffffffffffffffffffffffffffffffffffff16866040516117379190611e27565b600060405180830381855af49150503d8060008114611772576040519150601f19603f3d011682016040523d82523d6000602084013e611777565b606091505b509150915081801561178a575060008151115b156117aa57808060200190518101906117a39190611b5f565b9250611833565b816118325761182d6117bb82611609565b6040518060400160405280600281526020017f2d2d000000000000000000000000000000000000000000000000000000000000815250876040518060400160405280600681526020017f6661696c65640000000000000000000000000000000000000000000000000000815250611907565b600080fd5b5b50509392505050565b6118d8848484846040516024016118569493929190612133565b6040516020818303038152906040527fa0c4b225000000000000000000000000000000000000000000000000000000007bffffffffffffffffffffffffffffffffffffffffffffffffffffffff19166020820180517bffffffffffffffffffffffffffffffffffffffffffffffffffffffff83818316178352505050506118de565b50505050565b60008151905060006a636f6e736f6c652e6c6f679050602083016000808483855afa5050505050565b6119a38484848460405160240161192194939291906120a2565b6040516020818303038152906040527fde68f20a000000000000000000000000000000000000000000000000000000007bffffffffffffffffffffffffffffffffffffffffffffffffffffffff19166020820180517bffffffffffffffffffffffffffffffffffffffffffffffffffffffff83818316178352505050506118de565b50505050565b60006119bc6119b784612237565b612206565b9050828152602081018484840111156119d457600080fd5b6119df848285612489565b509392505050565b6000813590506119f68161252b565b92915050565b600081519050611a0b81612542565b92915050565b600081359050611a2081612559565b92915050565b600082601f830112611a3757600080fd5b8151611a478482602086016119a9565b91505092915050565b600081359050611a5f81612570565b92915050565b600081519050611a7481612570565b92915050565b600060208284031215611a8c57600080fd5b6000611a9a848285016119e7565b91505092915050565b600060208284031215611ab557600080fd5b6000611ac3848285016119fc565b91505092915050565b600060208284031215611ade57600080fd5b6000611aec84828501611a11565b91505092915050565b600060208284031215611b0757600080fd5b600082015167ffffffffffffffff811115611b2157600080fd5b611b2d84828501611a26565b91505092915050565b600060208284031215611b4857600080fd5b6000611b5684828501611a50565b91505092915050565b600060208284031215611b7157600080fd5b6000611b7f84828501611a65565b91505092915050565b611b91816122ca565b82525050565b6000611ba282612267565b611bac818561227d565b9350611bbc818560208601612489565b80840191505092915050565b611bd18161238d565b82525050565b611be0816123b1565b82525050565b611bef816123d5565b82525050565b611bfe816123f9565b82525050565b611c0d8161240b565b82525050565b611c1c8161241d565b82525050565b611c2b8161242f565b82525050565b611c3a81612441565b82525050565b611c4981612453565b82525050565b611c5881612465565b82525050565b611c6781612477565b82525050565b6000611c7882612272565b611c828185612288565b9350611c92818560208601612489565b611c9b8161251a565b840191505092915050565b6000611cb3602483612288565b91507f555344432f424e54207769746864726177616c2066726f6d20706f6f6c20666160008301527f696c6564000000000000000000000000000000000000000000000000000000006020830152604082019050919050565b6000611d19602683612288565b91507f4f776e61626c653a206e6577206f776e657220697320746865207a65726f206160008301527f64647265737300000000000000000000000000000000000000000000000000006020830152604082019050919050565b6000611d7f602b83612288565b91507f44656c656761746563616c6c20746f20526576656e6765206f6620546865204660008301527f6c617368206661696c65640000000000000000000000000000000000000000006020830152604082019050919050565b6000611de5602083612288565b91507f4f776e61626c653a2063616c6c6572206973206e6f7420746865206f776e65726000830152602082019050919050565b611e218161233a565b82525050565b6000611e338284611b97565b915081905092915050565b6000602082019050611e536000830184611b88565b92915050565b6000604082019050611e6e6000830185611b88565b611e7b6020830184611c13565b9392505050565b6000604082019050611e976000830185611b88565b611ea46020830184611e18565b9392505050565b6000606082019050611ec06000830186611b88565b611ecd6020830185611e18565b611eda6040830184611b88565b949350505050565b6000608082019050611ef76000830187611b88565b611f046020830186611e18565b611f116040830185611b88565b611f1e6060830184611bf5565b95945050505050565b600060c082019050611f3c6000830189611bc8565b611f496020830188611be6565b611f566040830187611c5e565b611f636060830186611c31565b611f706080830185611c40565b611f7d60a0830184611c31565b979650505050505050565b600060a082019050611f9d6000830188611bd7565b611faa6020830187611c04565b611fb76040830186611be6565b611fc46060830185611be6565b611fd16080830184611c31565b9695505050505050565b6000606082019050611ff06000830186611be6565b611ffd6020830185611b88565b61200a6040830184611c22565b949350505050565b60006060820190506120276000830186611be6565b6120346020830185611be6565b6120416040830184611c4f565b949350505050565b600060608201905061205e6000830186611be6565b61206b6020830185611be6565b6120786040830184611e18565b949350505050565b6000602082019050818103600083015261209a8184611c6d565b905092915050565b600060808201905081810360008301526120bc8187611c6d565b905081810360208301526120d08186611c6d565b905081810360408301526120e48185611c6d565b905081810360608301526120f88184611c6d565b905095945050505050565b6000604082019050818103600083015261211d8185611c6d565b905061212c6020830184611e18565b9392505050565b6000608082019050818103600083015261214d8187611c6d565b905061215c6020830186611e18565b818103604083015261216e8185611c6d565b905061217d6060830184611e18565b95945050505050565b6000602082019050818103600083015261219f81611ca6565b9050919050565b600060208201905081810360008301526121bf81611d0c565b9050919050565b600060208201905081810360008301526121df81611d72565b9050919050565b600060208201905081810360008301526121ff81611dd8565b9050919050565b6000604051905081810181811067ffffffffffffffff8211171561222d5761222c6124eb565b5b8060405250919050565b600067ffffffffffffffff821115612252576122516124eb565b5b601f19601f8301169050602081019050919050565b600081519050919050565b600081519050919050565b600081905092915050565b600082825260208201905092915050565b60006122a48261233a565b91506122af8361233a565b9250826122bf576122be6124bc565b5b828204905092915050565b60006122d58261231a565b9050919050565b60006122e78261231a565b9050919050565b60008115159050919050565b6000612305826122dc565b9050919050565b600061ffff82169050919050565b600073ffffffffffffffffffffffffffffffffffffffff82169050919050565b6000819050919050565b600064ffffffffff82169050919050565b600068ffffffffffffffffff82169050919050565b600060ff82169050919050565b600069ffffffffffffffffffff82169050919050565b60006123988261239f565b9050919050565b60006123aa8261231a565b9050919050565b60006123bc826123c3565b9050919050565b60006123ce8261231a565b9050919050565b60006123e0826123e7565b9050919050565b60006123f28261231a565b9050919050565b60006124048261230c565b9050919050565b600061241682612377565b9050919050565b60006124288261233a565b9050919050565b600061243a82612355565b9050919050565b600061244c8261236a565b9050919050565b600061245e8261236a565b9050919050565b600061247082612344565b9050919050565b600061248282612344565b9050919050565b60005b838110156124a757808201518184015260208101905061248c565b838111156124b6576000848401525b50505050565b7f4e487b7100000000000000000000000000000000000000000000000000000000600052601260045260246000fd5b7f4e487b7100000000000000000000000000000000000000000000000000000000600052604160045260246000fd5b6000601f19601f8301169050919050565b612534816122ca565b811461253f57600080fd5b50565b61254b816122ee565b811461255657600080fd5b50565b612562816122fa565b811461256d57600080fd5b50565b6125798161233a565b811461258457600080fd5b5056fe5f5f5f352e312e2d20424e542062616c616e6365202861667465722073776170293a20a2646970667358221220e89d4b36faf718f6e3100e78f8964ec8b25399ef2c6e37fdb0b541ec5454996a64736f6c63430008000033",
  "linkReferences": {},
  "deployedLinkReferences": {}
}