{
  "_format": "hh-sol-artifact-1",
  "contractName": "Exchange",
  "sourceName": "contracts/periphery/Exchange.sol",
  "abi": [
    {
      "anonymous": false,
      "inputs": [
        {
          "indexed": true,
          "internalType": "address",
          "name": "previousOwner",
          "type": "address"
        },
        {
          "indexed": true,
          "internalType": "address",
          "name": "newOwner",
          "type": "address"
        }
      ],
      "name": "OwnershipTransferred",
      "type": "event"
    },
    {
      "anonymous": false,
      "inputs": [
        {
          "indexed": false,
          "internalType": "uint256",
          "name": "hf",
          "type": "uint256"
        }
      ],
      "name": "UserHealthFactor",
      "type": "event"
    },
    {
      "inputs": [
        {
          "internalType": "contract IBalancerV1",
          "name": "_pool",
          "type": "address"
        },
        {
          "internalType": "uint256",
          "name": "_amount",
          "type": "uint256"
        },
        {
          "internalType": "contract MyIERC20",
          "name": "_tokenIn",
          "type": "address"
        },
        {
          "internalType": "contract MyIERC20",
          "name": "_tokenOut",
          "type": "address"
        }
      ],
      "name": "balancerSwapV1",
      "outputs": [
        {
          "internalType": "uint256",
          "name": "",
          "type": "uint256"
        }
      ],
      "stateMutability": "nonpayable",
      "type": "function"
    },
    {
      "inputs": [
        {
          "internalType": "contract MyIERC20",
          "name": "_tokenIn",
          "type": "address"
        },
        {
          "internalType": "contract MyIERC20",
          "name": "_tokenOut",
          "type": "address"
        },
        {
          "internalType": "uint256",
          "name": "_amount",
          "type": "uint256"
        }
      ],
      "name": "bancorSwap",
      "outputs": [
        {
          "internalType": "uint256",
          "name": "",
          "type": "uint256"
        }
      ],
      "stateMutability": "nonpayable",
      "type": "function"
    },
    {
      "inputs": [
        {
          "internalType": "contract ICurve",
          "name": "_pool",
          "type": "address"
        },
        {
          "internalType": "contract MyIERC20",
          "name": "_tokenIn",
          "type": "address"
        },
        {
          "internalType": "uint256",
          "name": "_amountTokenIn",
          "type": "uint256"
        },
        {
          "internalType": "int128",
          "name": "_numTokenIn",
          "type": "int128"
        },
        {
          "internalType": "int128",
          "name": "_numTokenOut",
          "type": "int128"
        },
        {
          "internalType": "uint256",
          "name": "_dir",
          "type": "uint256"
        }
      ],
      "name": "curveSwap",
      "outputs": [],
      "stateMutability": "nonpayable",
      "type": "function"
    },
    {
      "inputs": [
        {
          "internalType": "address",
          "name": "_pool",
          "type": "address"
        },
        {
          "internalType": "contract MyIERC20",
          "name": "_tokenIn",
          "type": "address"
        },
        {
          "internalType": "contract MyIERC20",
          "name": "_tokenOut",
          "type": "address"
        },
        {
          "internalType": "uint256",
          "name": "_amount",
          "type": "uint256"
        }
      ],
      "name": "dodoSwapV1",
      "outputs": [
        {
          "internalType": "uint256",
          "name": "",
          "type": "uint256"
        }
      ],
      "stateMutability": "nonpayable",
      "type": "function"
    },
    {
      "inputs": [
        {
          "internalType": "address",
          "name": "_user",
          "type": "address"
        }
      ],
      "name": "getUserHealthFactor_aave",
      "outputs": [],
      "stateMutability": "nonpayable",
      "type": "function"
    },
    {
      "inputs": [],
      "name": "owner",
      "outputs": [
        {
          "internalType": "address",
          "name": "",
          "type": "address"
        }
      ],
      "stateMutability": "view",
      "type": "function"
    },
    {
      "inputs": [],
      "name": "renounceOwnership",
      "outputs": [],
      "stateMutability": "nonpayable",
      "type": "function"
    },
    {
      "inputs": [
        {
          "internalType": "contract ICroDefiSwapRouter02",
          "name": "_router",
          "type": "address"
        },
        {
          "internalType": "uint256",
          "name": "_amount",
          "type": "uint256"
        },
        {
          "internalType": "contract MyIERC20",
          "name": "_tokenIn",
          "type": "address"
        },
        {
          "internalType": "contract MyIERC20",
          "name": "_tokenOut",
          "type": "address"
        }
      ],
      "name": "sushiUniCro_swap",
      "outputs": [
        {
          "internalType": "uint256",
          "name": "",
          "type": "uint256"
        }
      ],
      "stateMutability": "nonpayable",
      "type": "function"
    },
    {
      "inputs": [
        {
          "internalType": "contract IUniswapV2Router02",
          "name": "_router",
          "type": "address"
        },
        {
          "internalType": "uint256",
          "name": "_amount",
          "type": "uint256"
        },
        {
          "internalType": "contract MyIERC20",
          "name": "_tokenIn",
          "type": "address"
        },
        {
          "internalType": "contract MyIERC20",
          "name": "_tokenOut",
          "type": "address"
        },
        {
          "internalType": "uint256",
          "name": "_dir",
          "type": "uint256"
        }
      ],
      "name": "sushiUniCro_swap",
      "outputs": [
        {
          "internalType": "uint256",
          "name": "",
          "type": "uint256"
        }
      ],
      "stateMutability": "nonpayable",
      "type": "function"
    },
    {
      "inputs": [
        {
          "internalType": "address",
          "name": "newOwner",
          "type": "address"
        }
      ],
      "name": "transferOwnership",
      "outputs": [],
      "stateMutability": "nonpayable",
      "type": "function"
    },
    {
      "inputs": [
        {
          "internalType": "contract MyIERC20",
          "name": "_tokenOut",
          "type": "address"
        },
        {
          "internalType": "address",
          "name": "_recipient",
          "type": "address"
        },
        {
          "internalType": "uint256",
          "name": "_amountTokenOut",
          "type": "uint256"
        }
      ],
      "name": "withdrawFromPool",
      "outputs": [
        {
          "internalType": "uint256",
          "name": "",
          "type": "uint256"
        }
      ],
      "stateMutability": "nonpayable",
      "type": "function"
    },
    {
      "stateMutability": "payable",
      "type": "receive"
    }
  ],
  "bytecode": "0x60806040523480156200001157600080fd5b5062000032620000266200003860201b60201c565b6200004060201b60201c565b62000104565b600033905090565b60008060009054906101000a900473ffffffffffffffffffffffffffffffffffffffff169050816000806101000a81548173ffffffffffffffffffffffffffffffffffffffff021916908373ffffffffffffffffffffffffffffffffffffffff1602179055508173ffffffffffffffffffffffffffffffffffffffff168173ffffffffffffffffffffffffffffffffffffffff167f8be0079c531659141344cd1fd0a4f28419497f9722a3daafe3b4186f6b6457e060405160405180910390a35050565b61295680620001146000396000f3fe6080604052600436106100a05760003560e01c8063903cb80011610064578063903cb800146101915780639e547853146101ce578063a4e550791461020b578063a6e33af314610234578063f2fde38b14610271578063f5fd5db11461029a576100a7565b806339f2c566146100ac578063715018a6146100d55780637b4537b1146100ec5780638a655c10146101295780638da5cb5b14610166576100a7565b366100a757005b600080fd5b3480156100b857600080fd5b506100d360048036038101906100ce9190611b91565b6102d7565b005b3480156100e157600080fd5b506100ea61045f565b005b3480156100f857600080fd5b50610113600480360381019061010e9190611acb565b6104e7565b6040516101209190612556565b60405180910390f35b34801561013557600080fd5b50610150600480360381019061014b9190611c91565b6106c8565b60405161015d9190612556565b60405180910390f35b34801561017257600080fd5b5061017b610762565b6040516101889190612229565b60405180910390f35b34801561019d57600080fd5b506101b860048036038101906101b391906119bd565b61078b565b6040516101c59190612556565b60405180910390f35b3480156101da57600080fd5b506101f560048036038101906101f09190611b2e565b610a0c565b6040516102029190612556565b60405180910390f35b34801561021757600080fd5b50610232600480360381019061022d9190611994565b610b12565b005b34801561024057600080fd5b5061025b60048036038101906102569190611ce0565b610bf9565b6040516102689190612556565b60405180910390f35b34801561027d57600080fd5b5061029860048036038101906102939190611994565b610eda565b005b3480156102a657600080fd5b506102c160048036038101906102bc9190611c1a565b610fd2565b6040516102ce9190612556565b60405180910390f35b8473ffffffffffffffffffffffffffffffffffffffff1663095ea7b387866040518363ffffffff1660e01b81526004016103129291906122f2565b602060405180830381600087803b15801561032c57600080fd5b505af1158015610340573d6000803e3d6000fd5b505050506040513d601f19601f820116820180604052508101906103649190611aa2565b50600181146103e4578573ffffffffffffffffffffffffffffffffffffffff16633df0212484848760016040518563ffffffff1660e01b81526004016103ad949392919061242f565b600060405180830381600087803b1580156103c757600080fd5b505af11580156103db573d6000803e3d6000fd5b50505050610457565b8573ffffffffffffffffffffffffffffffffffffffff1663a6417ed684848760016040518563ffffffff1660e01b8152600401610424949392919061242f565b600060405180830381600087803b15801561043e57600080fd5b505af1158015610452573d6000803e3d6000fd5b505050505b505050505050565b610467611180565b73ffffffffffffffffffffffffffffffffffffffff16610485610762565b73ffffffffffffffffffffffffffffffffffffffff16146104db576040517f08c379a00000000000000000000000000000000000000000000000000000000081526004016104d2906124d6565b60405180910390fd5b6104e56000611188565b565b60008273ffffffffffffffffffffffffffffffffffffffff1663095ea7b386866040518363ffffffff1660e01b81526004016105249291906122f2565b602060405180830381600087803b15801561053e57600080fd5b505af1158015610552573d6000803e3d6000fd5b505050506040513d601f19601f820116820180604052508101906105769190611aa2565b5060008573ffffffffffffffffffffffffffffffffffffffff16638201aa3f85878660007fffffffffffffffffffffffffffffffffffffffffffffffffffffffffffffffff6040518663ffffffff1660e01b81526004016105db95949392919061231b565b6040805180830381600087803b1580156105f457600080fd5b505af1158015610608573d6000803e3d6000fd5b505050506040513d601f19601f8201168201806040525081019061062c9190611d58565b509050600860009054906101000a900473ffffffffffffffffffffffffffffffffffffffff1673ffffffffffffffffffffffffffffffffffffffff16632e1a7d4d826040518263ffffffff1660e01b815260040161068a9190612556565b600060405180830381600087803b1580156106a457600080fd5b505af11580156106b8573d6000803e3d6000fd5b5050505080915050949350505050565b60008373ffffffffffffffffffffffffffffffffffffffff1663a9059cbb84846040518363ffffffff1660e01b81526004016107059291906122f2565b602060405180830381600087803b15801561071f57600080fd5b505af1158015610733573d6000803e3d6000fd5b505050506040513d601f19601f820116820180604052508101906107579190611aa2565b508190509392505050565b60008060009054906101000a900473ffffffffffffffffffffffffffffffffffffffff16905090565b600080600167ffffffffffffffff8111156107cf577f4e487b7100000000000000000000000000000000000000000000000000000000600052604160045260246000fd5b6040519080825280602002602001820160405280156107fd5781602001602082028036833780820191505090505b509050858160008151811061083b577f4e487b7100000000000000000000000000000000000000000000000000000000600052603260045260246000fd5b602002602001019073ffffffffffffffffffffffffffffffffffffffff16908173ffffffffffffffffffffffffffffffffffffffff1681525050600073cb859ea579b28e02b87a1fde08d087ab9dbe514990508573ffffffffffffffffffffffffffffffffffffffff1663095ea7b3827fffffffffffffffffffffffffffffffffffffffffffffffffffffffffffffffff6040518363ffffffff1660e01b81526004016108e99291906122f2565b602060405180830381600087803b15801561090357600080fd5b505af1158015610917573d6000803e3d6000fd5b505050506040513d601f19601f8201168201806040525081019061093b9190611aa2565b506000601360009054906101000a900473ffffffffffffffffffffffffffffffffffffffff1673ffffffffffffffffffffffffffffffffffffffff16630dd4ebd988888860018860016000426040518963ffffffff1660e01b81526004016109aa98979695949392919061226d565b602060405180830381600087803b1580156109c457600080fd5b505af11580156109d8573d6000803e3d6000fd5b505050506040513d601f19601f820116820180604052508101906109fc9190611d2f565b9050809350505050949350505050565b6000610a1983868661124c565b6000610a2584846113aa565b905060008673ffffffffffffffffffffffffffffffffffffffff166338ed17398760008530426040518663ffffffff1660e01b8152600401610a6b959493929190612571565b600060405180830381600087803b158015610a8557600080fd5b505af1158015610a99573d6000803e3d6000fd5b505050506040513d6000823e3d601f19601f82011682018060405250810190610ac29190611a61565b905080600181518110610afe577f4e487b7100000000000000000000000000000000000000000000000000000000600052603260045260246000fd5b602002602001015192505050949350505050565b6000737d2768de32b0b80b7a3454c06bdac94a69ddc7a9905060008173ffffffffffffffffffffffffffffffffffffffff1663bf92857c846040518263ffffffff1660e01b8152600401610b669190612229565b60c06040518083038186803b158015610b7e57600080fd5b505afa158015610b92573d6000803e3d6000fd5b505050506040513d601f19601f82011682018060405250810190610bb69190611d94565b955050505050507f751353c6c9f6511fc5c4a178f01d353bb605ac3f2b56fd4967b10eab2df09aa681604051610bec9190612556565b60405180910390a1505050565b600080600f60009054906101000a900473ffffffffffffffffffffffffffffffffffffffff1673ffffffffffffffffffffffffffffffffffffffff1663d734fa1986866040518363ffffffff1660e01b8152600401610c59929190612406565b60006040518083038186803b158015610c7157600080fd5b505afa158015610c85573d6000803e3d6000fd5b505050506040513d6000823e3d601f19601f82011682018060405250810190610cae9190611a20565b90506000600f60009054906101000a900473ffffffffffffffffffffffffffffffffffffffff1673ffffffffffffffffffffffffffffffffffffffff16637f9c0ecd83866040518363ffffffff1660e01b8152600401610d0f92919061236e565b60206040518083038186803b158015610d2757600080fd5b505afa158015610d3b573d6000803e3d6000fd5b505050506040513d601f19601f82011682018060405250810190610d5f9190611d2f565b90508573ffffffffffffffffffffffffffffffffffffffff1663095ea7b3600f60009054906101000a900473ffffffffffffffffffffffffffffffffffffffff16866040518363ffffffff1660e01b8152600401610dbe9291906122f2565b602060405180830381600087803b158015610dd857600080fd5b505af1158015610dec573d6000803e3d6000fd5b505050506040513d601f19601f82011682018060405250810190610e109190611aa2565b506000600f60009054906101000a900473ffffffffffffffffffffffffffffffffffffffff1673ffffffffffffffffffffffffffffffffffffffff1663b77d239b848785306000806040518763ffffffff1660e01b8152600401610e799695949392919061239e565b602060405180830381600087803b158015610e9357600080fd5b505af1158015610ea7573d6000803e3d6000fd5b505050506040513d601f19601f82011682018060405250810190610ecb9190611d2f565b90508093505050509392505050565b610ee2611180565b73ffffffffffffffffffffffffffffffffffffffff16610f00610762565b73ffffffffffffffffffffffffffffffffffffffff1614610f56576040517f08c379a0000000000000000000000000000000000000000000000000000000008152600401610f4d906124d6565b60405180910390fd5b600073ffffffffffffffffffffffffffffffffffffffff168173ffffffffffffffffffffffffffffffffffffffff161415610fc6576040517f08c379a0000000000000000000000000000000000000000000000000000000008152600401610fbd90612496565b60405180910390fd5b610fcf81611188565b50565b6000610fdf84878761124c565b6000610feb85856113aa565b9050600060018414611095578773ffffffffffffffffffffffffffffffffffffffff166338ed17398860008530426040518663ffffffff1660e01b8152600401611039959493929190612571565b600060405180830381600087803b15801561105357600080fd5b505af1158015611067573d6000803e3d6000fd5b505050506040513d6000823e3d601f19601f820116820180604052508101906110909190611a61565b61112f565b8773ffffffffffffffffffffffffffffffffffffffff166318cbafe58860008530426040518663ffffffff1660e01b81526004016110d7959493929190612571565b600060405180830381600087803b1580156110f157600080fd5b505af1158015611105573d6000803e3d6000fd5b505050506040513d6000823e3d601f19601f8201168201806040525081019061112e9190611a61565b5b90508060018151811061116b577f4e487b7100000000000000000000000000000000000000000000000000000000600052603260045260246000fd5b60200260200101519250505095945050505050565b600033905090565b60008060009054906101000a900473ffffffffffffffffffffffffffffffffffffffff169050816000806101000a81548173ffffffffffffffffffffffffffffffffffffffff021916908373ffffffffffffffffffffffffffffffffffffffff1602179055508173ffffffffffffffffffffffffffffffffffffffff168173ffffffffffffffffffffffffffffffffffffffff167f8be0079c531659141344cd1fd0a4f28419497f9722a3daafe3b4186f6b6457e060405160405180910390a35050565b60008114806112e5575060008373ffffffffffffffffffffffffffffffffffffffff1663dd62ed3e30856040518363ffffffff1660e01b8152600401611293929190612244565b60206040518083038186803b1580156112ab57600080fd5b505afa1580156112bf573d6000803e3d6000fd5b505050506040513d601f19601f820116820180604052508101906112e39190611d2f565b145b611324576040517f08c379a000000000000000000000000000000000000000000000000000000000815260040161131b90612536565b60405180910390fd5b6113a58363095ea7b360e01b84846040516024016113439291906122f2565b604051602081830303815290604052907bffffffffffffffffffffffffffffffffffffffffffffffffffffffff19166020820180517bffffffffffffffffffffffffffffffffffffffffffffffffffffffff8381831617835250505050611514565b505050565b60606000600267ffffffffffffffff8111156113ef577f4e487b7100000000000000000000000000000000000000000000000000000000600052604160045260246000fd5b60405190808252806020026020018201604052801561141d5781602001602082028036833780820191505090505b509050838160008151811061145b577f4e487b7100000000000000000000000000000000000000000000000000000000600052603260045260246000fd5b602002602001019073ffffffffffffffffffffffffffffffffffffffff16908173ffffffffffffffffffffffffffffffffffffffff168152505082816001815181106114d0577f4e487b7100000000000000000000000000000000000000000000000000000000600052603260045260246000fd5b602002602001019073ffffffffffffffffffffffffffffffffffffffff16908173ffffffffffffffffffffffffffffffffffffffff16815250508091505092915050565b6000611576826040518060400160405280602081526020017f5361666545524332303a206c6f772d6c6576656c2063616c6c206661696c65648152508573ffffffffffffffffffffffffffffffffffffffff166115db9092919063ffffffff16565b90506000815111156115d657808060200190518101906115969190611aa2565b6115d5576040517f08c379a00000000000000000000000000000000000000000000000000000000081526004016115cc90612516565b60405180910390fd5b5b505050565b60606115ea84846000856115f3565b90509392505050565b606082471015611638576040517f08c379a000000000000000000000000000000000000000000000000000000000815260040161162f906124b6565b60405180910390fd5b61164185611707565b611680576040517f08c379a0000000000000000000000000000000000000000000000000000000008152600401611677906124f6565b60405180910390fd5b6000808673ffffffffffffffffffffffffffffffffffffffff1685876040516116a99190612212565b60006040518083038185875af1925050503d80600081146116e6576040519150601f19603f3d011682016040523d82523d6000602084013e6116eb565b606091505b50915091506116fb82828661171a565b92505050949350505050565b600080823b905060008111915050919050565b6060831561172a5782905061177a565b60008351111561173d5782518084602001fd5b816040517f08c379a00000000000000000000000000000000000000000000000000000000081526004016117719190612474565b60405180910390fd5b9392505050565b600061179461178f846125fc565b6125cb565b905080838252602082019050828560208602820111156117b357600080fd5b60005b858110156117e357816117c98882611940565b8452602084019350602083019250506001810190506117b6565b5050509392505050565b60006118006117fb84612628565b6125cb565b9050808382526020820190508285602086028201111561181f57600080fd5b60005b8581101561184f5781611835888261197f565b845260208401935060208301925050600181019050611822565b5050509392505050565b60008135905061186881612851565b92915050565b600082601f83011261187f57600080fd5b815161188f848260208601611781565b91505092915050565b600082601f8301126118a957600080fd5b81516118b98482602086016117ed565b91505092915050565b6000815190506118d181612868565b92915050565b6000813590506118e68161287f565b92915050565b6000813590506118fb81612896565b92915050565b600081359050611910816128ad565b92915050565b600081359050611925816128c4565b92915050565b60008135905061193a816128db565b92915050565b60008151905061194f816128db565b92915050565b600081359050611964816128f2565b92915050565b60008135905061197981612909565b92915050565b60008151905061198e81612909565b92915050565b6000602082840312156119a657600080fd5b60006119b484828501611859565b91505092915050565b600080600080608085870312156119d357600080fd5b60006119e187828801611859565b94505060206119f28782880161192b565b9350506040611a038782880161192b565b9250506060611a148782880161196a565b91505092959194509250565b600060208284031215611a3257600080fd5b600082015167ffffffffffffffff811115611a4c57600080fd5b611a588482850161186e565b91505092915050565b600060208284031215611a7357600080fd5b600082015167ffffffffffffffff811115611a8d57600080fd5b611a9984828501611898565b91505092915050565b600060208284031215611ab457600080fd5b6000611ac2848285016118c2565b91505092915050565b60008060008060808587031215611ae157600080fd5b6000611aef878288016118d7565b9450506020611b008782880161196a565b9350506040611b118782880161192b565b9250506060611b228782880161192b565b91505092959194509250565b60008060008060808587031215611b4457600080fd5b6000611b52878288016118ec565b9450506020611b638782880161196a565b9350506040611b748782880161192b565b9250506060611b858782880161192b565b91505092959194509250565b60008060008060008060c08789031215611baa57600080fd5b6000611bb889828a01611901565b9650506020611bc989828a0161192b565b9550506040611bda89828a0161196a565b9450506060611beb89828a01611955565b9350506080611bfc89828a01611955565b92505060a0611c0d89828a0161196a565b9150509295509295509295565b600080600080600060a08688031215611c3257600080fd5b6000611c4088828901611916565b9550506020611c518882890161196a565b9450506040611c628882890161192b565b9350506060611c738882890161192b565b9250506080611c848882890161196a565b9150509295509295909350565b600080600060608486031215611ca657600080fd5b6000611cb48682870161192b565b9350506020611cc586828701611859565b9250506040611cd68682870161196a565b9150509250925092565b600080600060608486031215611cf557600080fd5b6000611d038682870161192b565b9350506020611d148682870161192b565b9250506040611d258682870161196a565b9150509250925092565b600060208284031215611d4157600080fd5b6000611d4f8482850161197f565b91505092915050565b60008060408385031215611d6b57600080fd5b6000611d798582860161197f565b9250506020611d8a8582860161197f565b9150509250929050565b60008060008060008060c08789031215611dad57600080fd5b6000611dbb89828a0161197f565b9650506020611dcc89828a0161197f565b9550506040611ddd89828a0161197f565b9450506060611dee89828a0161197f565b9350506080611dff89828a0161197f565b92505060a0611e1089828a0161197f565b9150509295509295509295565b6000611e298383611e4d565b60208301905092915050565b6000611e418383611f67565b60208301905092915050565b611e56816126e7565b82525050565b611e65816126e7565b82525050565b6000611e7682612674565b611e8081856126ba565b9350611e8b83612654565b8060005b83811015611ebc578151611ea38882611e1d565b9750611eae836126a0565b925050600181019050611e8f565b5085935050505092915050565b6000611ed48261267f565b611ede81856126ba565b9350611ee983612664565b8060005b83811015611f1a578151611f018882611e35565b9750611f0c836126ad565b925050600181019050611eed565b5085935050505092915050565b611f30816126f9565b82525050565b6000611f418261268a565b611f4b81856126cb565b9350611f5b8185602086016127de565b80840191505092915050565b611f7081612796565b82525050565b611f7f81612796565b82525050565b611f8e8161275f565b82525050565b611f9d816127ba565b82525050565b611fac816127cc565b82525050565b6000611fbd82612695565b611fc781856126d6565b9350611fd78185602086016127de565b611fe081612840565b840191505092915050565b6000611ff86026836126d6565b91507f4f776e61626c653a206e6577206f776e657220697320746865207a65726f206160008301527f64647265737300000000000000000000000000000000000000000000000000006020830152604082019050919050565b600061205e6026836126d6565b91507f416464726573733a20696e73756666696369656e742062616c616e636520666f60008301527f722063616c6c00000000000000000000000000000000000000000000000000006020830152604082019050919050565b60006120c46020836126d6565b91507f4f776e61626c653a2063616c6c6572206973206e6f7420746865206f776e65726000830152602082019050919050565b6000612104601d836126d6565b91507f416464726573733a2063616c6c20746f206e6f6e2d636f6e74726163740000006000830152602082019050919050565b6000612144602a836126d6565b91507f5361666545524332303a204552433230206f7065726174696f6e20646964206e60008301527f6f742073756363656564000000000000000000000000000000000000000000006020830152604082019050919050565b60006121aa6036836126d6565b91507f5361666545524332303a20617070726f76652066726f6d206e6f6e2d7a65726f60008301527f20746f206e6f6e2d7a65726f20616c6c6f77616e6365000000000000000000006020830152604082019050919050565b61220c8161278c565b82525050565b600061221e8284611f36565b915081905092915050565b600060208201905061223e6000830184611e5c565b92915050565b60006040820190506122596000830185611e5c565b6122666020830184611e5c565b9392505050565b600061010082019050612283600083018b611e5c565b612290602083018a611e5c565b61229d6040830189612203565b6122aa6060830188611fa3565b81810360808301526122bc8187611e6b565b90506122cb60a0830186611fa3565b6122d860c0830185611f27565b6122e560e0830184612203565b9998505050505050505050565b60006040820190506123076000830185611e5c565b6123146020830184612203565b9392505050565b600060a0820190506123306000830188611e5c565b61233d6020830187612203565b61234a6040830186611e5c565b6123576060830185611f94565b6123646080830184612203565b9695505050505050565b600060408201905081810360008301526123888185611ec9565b90506123976020830184612203565b9392505050565b600060c08201905081810360008301526123b88189611ec9565b90506123c76020830188612203565b6123d46040830187612203565b6123e16060830186611e5c565b6123ee6080830185611e5c565b6123fb60a0830184611f94565b979650505050505050565b600060408201905061241b6000830185611f76565b6124286020830184611f76565b9392505050565b60006080820190506124446000830187611f85565b6124516020830186611f85565b61245e6040830185612203565b61246b6060830184611fa3565b95945050505050565b6000602082019050818103600083015261248e8184611fb2565b905092915050565b600060208201905081810360008301526124af81611feb565b9050919050565b600060208201905081810360008301526124cf81612051565b9050919050565b600060208201905081810360008301526124ef816120b7565b9050919050565b6000602082019050818103600083015261250f816120f7565b9050919050565b6000602082019050818103600083015261252f81612137565b9050919050565b6000602082019050818103600083015261254f8161219d565b9050919050565b600060208201905061256b6000830184612203565b92915050565b600060a0820190506125866000830188612203565b6125936020830187611f94565b81810360408301526125a58186611e6b565b90506125b46060830185611e5c565b6125c16080830184612203565b9695505050505050565b6000604051905081810181811067ffffffffffffffff821117156125f2576125f1612811565b5b8060405250919050565b600067ffffffffffffffff82111561261757612616612811565b5b602082029050602081019050919050565b600067ffffffffffffffff82111561264357612642612811565b5b602082029050602081019050919050565b6000819050602082019050919050565b6000819050602082019050919050565b600081519050919050565b600081519050919050565b600081519050919050565b600081519050919050565b6000602082019050919050565b6000602082019050919050565b600082825260208201905092915050565b600081905092915050565b600082825260208201905092915050565b60006126f28261276c565b9050919050565b60008115159050919050565b6000612710826126e7565b9050919050565b6000612722826126e7565b9050919050565b6000612734826126e7565b9050919050565b6000612746826126e7565b9050919050565b6000612758826126e7565b9050919050565b600081600f0b9050919050565b600073ffffffffffffffffffffffffffffffffffffffff82169050919050565b6000819050919050565b60006127a1826127a8565b9050919050565b60006127b38261276c565b9050919050565b60006127c58261278c565b9050919050565b60006127d78261278c565b9050919050565b60005b838110156127fc5780820151818401526020810190506127e1565b8381111561280b576000848401525b50505050565b7f4e487b7100000000000000000000000000000000000000000000000000000000600052604160045260246000fd5b6000601f19601f8301169050919050565b61285a816126e7565b811461286557600080fd5b50565b612871816126f9565b811461287c57600080fd5b50565b61288881612705565b811461289357600080fd5b50565b61289f81612717565b81146128aa57600080fd5b50565b6128b681612729565b81146128c157600080fd5b50565b6128cd8161273b565b81146128d857600080fd5b50565b6128e48161274d565b81146128ef57600080fd5b50565b6128fb8161275f565b811461290657600080fd5b50565b6129128161278c565b811461291d57600080fd5b5056fea26469706673582212206e53a72047cc6f9631b696a703330f1aa90f516f388eeaaffa61e8721b4d4a1f64736f6c63430008000033",
  "linkReferences": {},
  "deployedLinkReferences": {}
}