{
  "_format": "hh-sol-artifact-1",
  "contractName": "DyDxFlashloaner",
  "sourceName": "contracts/periphery/DyDxFlashloaner.sol",
  "abi": [
    {
      "inputs": [
        {
          "internalType": "address",
          "name": "_logicContract",
          "type": "address"
        },
        {
          "internalType": "uint256",
          "name": "_borrowed",
          "type": "uint256"
        }
      ],
      "stateMutability": "nonpayable",
      "type": "constructor"
    },
    {
      "anonymous": false,
      "inputs": [
        {
          "indexed": true,
          "internalType": "address",
          "name": "previousOwner",
          "type": "address"
        },
        {
          "indexed": true,
          "internalType": "address",
          "name": "newOwner",
          "type": "address"
        }
      ],
      "name": "OwnershipTransferred",
      "type": "event"
    },
    {
      "inputs": [
        {
          "internalType": "address",
          "name": "sender",
          "type": "address"
        },
        {
          "components": [
            {
              "internalType": "address",
              "name": "owner",
              "type": "address"
            },
            {
              "internalType": "uint256",
              "name": "number",
              "type": "uint256"
            }
          ],
          "internalType": "struct Account.Info",
          "name": "accountInfo",
          "type": "tuple"
        },
        {
          "internalType": "bytes",
          "name": "data",
          "type": "bytes"
        }
      ],
      "name": "callFunction",
      "outputs": [],
      "stateMutability": "nonpayable",
      "type": "function"
    },
    {
      "inputs": [
        {
          "internalType": "address",
          "name": "_solo",
          "type": "address"
        },
        {
          "internalType": "address",
          "name": "_token",
          "type": "address"
        },
        {
          "internalType": "uint256",
          "name": "_amount",
          "type": "uint256"
        }
      ],
      "name": "initiateFlashLoan",
      "outputs": [],
      "stateMutability": "nonpayable",
      "type": "function"
    },
    {
      "inputs": [],
      "name": "owner",
      "outputs": [
        {
          "internalType": "address",
          "name": "",
          "type": "address"
        }
      ],
      "stateMutability": "view",
      "type": "function"
    },
    {
      "inputs": [],
      "name": "renounceOwnership",
      "outputs": [],
      "stateMutability": "nonpayable",
      "type": "function"
    },
    {
      "inputs": [
        {
          "internalType": "address",
          "name": "newOwner",
          "type": "address"
        }
      ],
      "name": "transferOwnership",
      "outputs": [],
      "stateMutability": "nonpayable",
      "type": "function"
    },
    {
      "stateMutability": "payable",
      "type": "receive"
    }
  ],
  "bytecode": "0x6080604052731e0447b19bb6ecfdae1e4ae1694b0c3659614e4e600160006101000a81548173ffffffffffffffffffffffffffffffffffffffff021916908373ffffffffffffffffffffffffffffffffffffffff16021790555073c02aaa39b223fe8d0a0e5c4f27ead9083c756cc2600460006101000a81548173ffffffffffffffffffffffffffffffffffffffff021916908373ffffffffffffffffffffffffffffffffffffffff160217905550600160009054906101000a900473ffffffffffffffffffffffffffffffffffffffff16600560006101000a81548173ffffffffffffffffffffffffffffffffffffffff021916908373ffffffffffffffffffffffffffffffffffffffff1602179055503480156200011e57600080fd5b506040516200268f3803806200268f8339818101604052810190620001449190620003bd565b6200016462000158620002ac60201b60201c565b620002b460201b60201c565b600460009054906101000a900473ffffffffffffffffffffffffffffffffffffffff1673ffffffffffffffffffffffffffffffffffffffff1663095ea7b3600560009054906101000a900473ffffffffffffffffffffffffffffffffffffffff167fffffffffffffffffffffffffffffffffffffffffffffffffffffffffffffffff6040518363ffffffff1660e01b8152600401620002059291906200044c565b602060405180830381600087803b1580156200022057600080fd5b505af115801562000235573d6000803e3d6000fd5b505050506040513d601f19601f820116820180604052508101906200025b9190620003fe565b5081600260006101000a81548173ffffffffffffffffffffffffffffffffffffffff021916908373ffffffffffffffffffffffffffffffffffffffff16021790555080600381905550505062000511565b600033905090565b60008060009054906101000a900473ffffffffffffffffffffffffffffffffffffffff169050816000806101000a81548173ffffffffffffffffffffffffffffffffffffffff021916908373ffffffffffffffffffffffffffffffffffffffff1602179055508173ffffffffffffffffffffffffffffffffffffffff168173ffffffffffffffffffffffffffffffffffffffff167f8be0079c531659141344cd1fd0a4f28419497f9722a3daafe3b4186f6b6457e060405160405180910390a35050565b6000815190506200038981620004c3565b92915050565b600081519050620003a081620004dd565b92915050565b600081519050620003b781620004f7565b92915050565b60008060408385031215620003d157600080fd5b6000620003e18582860162000378565b9250506020620003f485828601620003a6565b9150509250929050565b6000602082840312156200041157600080fd5b600062000421848285016200038f565b91505092915050565b620004358162000479565b82525050565b6200044681620004b9565b82525050565b60006040820190506200046360008301856200042a565b6200047260208301846200043b565b9392505050565b6000620004868262000499565b9050919050565b60008115159050919050565b600073ffffffffffffffffffffffffffffffffffffffff82169050919050565b6000819050919050565b620004ce8162000479565b8114620004da57600080fd5b50565b620004e8816200048d565b8114620004f457600080fd5b50565b6200050281620004b9565b81146200050e57600080fd5b50565b61216e80620005216000396000f3fe60806040526004361061004e5760003560e01c8063715018a61461005a5780638b418713146100715780638da5cb5b1461009a578063f2fde38b146100c5578063f4840123146100ee57610055565b3661005557005b600080fd5b34801561006657600080fd5b5061006f610117565b005b34801561007d57600080fd5b50610098600480360381019061009391906114e1565b61019f565b005b3480156100a657600080fd5b506100af6104b3565b6040516100bc9190611b27565b60405180910390f35b3480156100d157600080fd5b506100ec60048036038101906100e79190611469565b6104dc565b005b3480156100fa57600080fd5b5061011560048036038101906101109190611492565b6105d4565b005b61011f610d09565b73ffffffffffffffffffffffffffffffffffffffff1661013d6104b3565b73ffffffffffffffffffffffffffffffffffffffff1614610193576040517f08c379a000000000000000000000000000000000000000000000000000000000815260040161018a90611c54565b60405180910390fd5b61019d6000610d11565b565b600160009054906101000a900473ffffffffffffffffffffffffffffffffffffffff1673ffffffffffffffffffffffffffffffffffffffff163373ffffffffffffffffffffffffffffffffffffffff161461022f576040517f08c379a000000000000000000000000000000000000000000000000000000000815260040161022690611c74565b60405180910390fd5b60008180602001905181019061024591906115b2565b90506000816000015173ffffffffffffffffffffffffffffffffffffffff166370a08231306040518263ffffffff1660e01b81526004016102869190611b27565b60206040518083038186803b15801561029e57600080fd5b505afa1580156102b2573d6000803e3d6000fd5b505050506040513d601f19601f820116820180604052508101906102d691906115db565b9050816020015181101561031f576040517f08c379a000000000000000000000000000000000000000000000000000000000815260040161031690611c34565b60405180910390fd5b6103ec60405180606001604052806026815260200161211360269139670de0b6b3a76400006002856000015173ffffffffffffffffffffffffffffffffffffffff166370a08231306040518263ffffffff1660e01b81526004016103839190611b27565b60206040518083038186803b15801561039b57600080fd5b505afa1580156103af573d6000803e3d6000fd5b505050506040513d601f19601f820116820180604052508101906103d391906115db565b6103dd9190611e97565b6103e79190611e66565b610dd5565b816000015173ffffffffffffffffffffffffffffffffffffffff1663a9059cbb600260009054906101000a900473ffffffffffffffffffffffffffffffffffffffff166003546040518363ffffffff1660e01b815260040161044f929190611b42565b602060405180830381600087803b15801561046957600080fd5b505af115801561047d573d6000803e3d6000fd5b505050506040513d601f19601f820116820180604052508101906104a19190611548565b506104aa610e71565b50505050505050565b60008060009054906101000a900473ffffffffffffffffffffffffffffffffffffffff16905090565b6104e4610d09565b73ffffffffffffffffffffffffffffffffffffffff166105026104b3565b73ffffffffffffffffffffffffffffffffffffffff1614610558576040517f08c379a000000000000000000000000000000000000000000000000000000000815260040161054f90611c54565b60405180910390fd5b600073ffffffffffffffffffffffffffffffffffffffff168173ffffffffffffffffffffffffffffffffffffffff1614156105c8576040517f08c379a00000000000000000000000000000000000000000000000000000000081526004016105bf90611bf4565b60405180910390fd5b6105d181610d11565b50565b6105dc610d09565b73ffffffffffffffffffffffffffffffffffffffff166105fa6104b3565b73ffffffffffffffffffffffffffffffffffffffff1614610650576040517f08c379a000000000000000000000000000000000000000000000000000000000815260040161064790611c54565b60405180910390fd5b6000600367ffffffffffffffff811115610693577f4e487b7100000000000000000000000000000000000000000000000000000000600052604160045260246000fd5b6040519080825280602002602001820160405280156106cc57816020015b6106b9611135565b8152602001906001900390816106b15790505b50905060405180610100016040528060016008811115610715577f4e487b7100000000000000000000000000000000000000000000000000000000600052602160045260246000fd5b81526020016000815260200160405180608001604052806000151581526020016000600181111561076f577f4e487b7100000000000000000000000000000000000000000000000000000000600052602160045260246000fd5b8152602001600060018111156107ae577f4e487b7100000000000000000000000000000000000000000000000000000000600052602160045260246000fd5b815260200185815250815260200160008152602001600081526020013073ffffffffffffffffffffffffffffffffffffffff16815260200160008152602001604051806020016040528060008152508152508160008151811061083a577f4e487b7100000000000000000000000000000000000000000000000000000000600052603260045260246000fd5b602002602001018190525060405180610100016040528060088081111561088a577f4e487b7100000000000000000000000000000000000000000000000000000000600052602160045260246000fd5b8152602001600081526020016040518060800160405280600015158152602001600060018111156108e4577f4e487b7100000000000000000000000000000000000000000000000000000000600052602160045260246000fd5b815260200160006001811115610923577f4e487b7100000000000000000000000000000000000000000000000000000000600052602160045260246000fd5b81526020016000815250815260200160008152602001600081526020013073ffffffffffffffffffffffffffffffffffffffff1681526020016000815260200160405180604001604052808673ffffffffffffffffffffffffffffffffffffffff1681526020016002866109979190611e10565b8152506040516020016109aa9190611c94565b604051602081830303815290604052815250816001815181106109f6577f4e487b7100000000000000000000000000000000000000000000000000000000600052603260045260246000fd5b602002602001018190525060405180610100016040528060006008811115610a47577f4e487b7100000000000000000000000000000000000000000000000000000000600052602160045260246000fd5b815260200160008152602001604051806080016040528060011515815260200160006001811115610aa1577f4e487b7100000000000000000000000000000000000000000000000000000000600052602160045260246000fd5b815260200160006001811115610ae0577f4e487b7100000000000000000000000000000000000000000000000000000000600052602160045260246000fd5b8152602001600286610af29190611e10565b815250815260200160008152602001600081526020013073ffffffffffffffffffffffffffffffffffffffff168152602001600081526020016040518060200160405280600081525081525081600281518110610b78577f4e487b7100000000000000000000000000000000000000000000000000000000600052603260045260246000fd5b60200260200101819052506000600167ffffffffffffffff811115610bc6577f4e487b7100000000000000000000000000000000000000000000000000000000600052604160045260246000fd5b604051908082528060200260200182016040528015610bff57816020015b610bec6111ce565b815260200190600190039081610be45790505b50905060405180604001604052803073ffffffffffffffffffffffffffffffffffffffff168152602001600181525081600081518110610c68577f4e487b7100000000000000000000000000000000000000000000000000000000600052603260045260246000fd5b6020026020010181905250600560009054906101000a900473ffffffffffffffffffffffffffffffffffffffff1673ffffffffffffffffffffffffffffffffffffffff1663a67a6a4582846040518363ffffffff1660e01b8152600401610cd0929190611b6b565b600060405180830381600087803b158015610cea57600080fd5b505af1158015610cfe573d6000803e3d6000fd5b505050505050505050565b600033905090565b60008060009054906101000a900473ffffffffffffffffffffffffffffffffffffffff169050816000806101000a81548173ffffffffffffffffffffffffffffffffffffffff021916908373ffffffffffffffffffffffffffffffffffffffff1602179055508173ffffffffffffffffffffffffffffffffffffffff168173ffffffffffffffffffffffffffffffffffffffff167f8be0079c531659141344cd1fd0a4f28419497f9722a3daafe3b4186f6b6457e060405160405180910390a35050565b610e6d8282604051602401610deb929190611bc4565b6040516020818303038152906040527f9710a9d0000000000000000000000000000000000000000000000000000000007bffffffffffffffffffffffffffffffffffffffffffffffffffffffff19166020820180517bffffffffffffffffffffffffffffffffffffffffffffffffffffffff8381831617835250505050611008565b5050565b60006060600080600260009054906101000a900473ffffffffffffffffffffffffffffffffffffffff1673ffffffffffffffffffffffffffffffffffffffff16600354604051602401610ec49190611caf565b6040516020818303038152906040527ffe0d94c1000000000000000000000000000000000000000000000000000000007bffffffffffffffffffffffffffffffffffffffffffffffffffffffff19166020820180517bffffffffffffffffffffffffffffffffffffffffffffffffffffffff8381831617835250505050604051610f4e9190611b10565b6000604051808303816000865af19150503d8060008114610f8b576040519150601f19603f3d011682016040523d82523d6000602084013e610f90565b606091505b509150915081610fac57610fab610fa682611031565b61109c565b5b81610fec576040517f08c379a0000000000000000000000000000000000000000000000000000000008152600401610fe390611c14565b60405180910390fd5b6000604051806020016040528060008152509350935050509091565b60008151905060006a636f6e736f6c652e6c6f679050602083016000808483855afa5050505050565b606060448251101561107a576040518060400160405280601d81526020017f5472616e73616374696f6e2072657665727465642073696c656e746c790000008152509050611097565b600482019150818060200190518101906110949190611571565b90505b919050565b611132816040516024016110b09190611ba2565b6040516020818303038152906040527f41304fac000000000000000000000000000000000000000000000000000000007bffffffffffffffffffffffffffffffffffffffffffffffffffffffff19166020820180517bffffffffffffffffffffffffffffffffffffffffffffffffffffffff8381831617835250505050611008565b50565b6040518061010001604052806000600881111561117b577f4e487b7100000000000000000000000000000000000000000000000000000000600052602160045260246000fd5b81526020016000815260200161118f6111fe565b81526020016000815260200160008152602001600073ffffffffffffffffffffffffffffffffffffffff16815260200160008152602001606081525090565b6040518060400160405280600073ffffffffffffffffffffffffffffffffffffffff168152602001600081525090565b60405180608001604052806000151581526020016000600181111561124c577f4e487b7100000000000000000000000000000000000000000000000000000000600052602160045260246000fd5b81526020016000600181111561128b577f4e487b7100000000000000000000000000000000000000000000000000000000600052602160045260246000fd5b8152602001600081525090565b60006112ab6112a684611cfb565b611cca565b9050828152602081018484840111156112c357600080fd5b6112ce848285611f82565b509392505050565b60006112e96112e484611d2b565b611cca565b90508281526020810184848401111561130157600080fd5b61130c848285611f91565b509392505050565b600081359050611323816120cd565b92915050565b600081519050611338816120cd565b92915050565b60008151905061134d816120e4565b92915050565b600082601f83011261136457600080fd5b8135611374848260208601611298565b91505092915050565b600082601f83011261138e57600080fd5b815161139e8482602086016112d6565b91505092915050565b6000604082840312156113b957600080fd5b6113c36040611cca565b905060006113d384828501611314565b60008301525060206113e78482850161143f565b60208301525092915050565b60006040828403121561140557600080fd5b61140f6040611cca565b9050600061141f84828501611329565b600083015250602061143384828501611454565b60208301525092915050565b60008135905061144e816120fb565b92915050565b600081519050611463816120fb565b92915050565b60006020828403121561147b57600080fd5b600061148984828501611314565b91505092915050565b6000806000606084860312156114a757600080fd5b60006114b586828701611314565b93505060206114c686828701611314565b92505060406114d78682870161143f565b9150509250925092565b6000806000608084860312156114f657600080fd5b600061150486828701611314565b9350506020611515868287016113a7565b925050606084013567ffffffffffffffff81111561153257600080fd5b61153e86828701611353565b9150509250925092565b60006020828403121561155a57600080fd5b60006115688482850161133e565b91505092915050565b60006020828403121561158357600080fd5b600082015167ffffffffffffffff81111561159d57600080fd5b6115a98482850161137d565b91505092915050565b6000604082840312156115c457600080fd5b60006115d2848285016113f3565b91505092915050565b6000602082840312156115ed57600080fd5b60006115fb84828501611454565b91505092915050565b6000611610838361198c565b905092915050565b60006116248383611a94565b60408301905092915050565b61163981611ecb565b82525050565b61164881611ecb565b82525050565b600061165982611d7b565b6116638185611dc1565b93508360208202850161167585611d5b565b8060005b858110156116b157848403895281516116928582611604565b945061169d83611da7565b925060208a01995050600181019050611679565b50829750879550505050505092915050565b60006116ce82611d86565b6116d88185611dd2565b93506116e383611d6b565b8060005b838110156117145781516116fb8882611618565b975061170683611db4565b9250506001810190506116e7565b5085935050505092915050565b61172a81611edd565b82525050565b600061173b82611d91565b6117458185611de3565b9350611755818560208601611f91565b61175e81612080565b840191505092915050565b600061177482611d91565b61177e8185611df4565b935061178e818560208601611f91565b80840191505092915050565b6117a381611f4c565b82525050565b6117b281611f5e565b82525050565b6117c181611f70565b82525050565b60006117d282611d9c565b6117dc8185611dff565b93506117ec818560208601611f91565b6117f581612080565b840191505092915050565b600061180d602683611dff565b91507f4f776e61626c653a206e6577206f776e657220697320746865207a65726f206160008301527f64647265737300000000000000000000000000000000000000000000000000006020830152604082019050919050565b6000611873601583611dff565b91507f4479447820466c6173686c6f616e206661696c656400000000000000000000006000830152602082019050919050565b60006118b3602483611dff565b91507f4e6f7420656e6f7567682066756e647320746f2072657061792064796478206c60008301527f6f616e21000000000000000000000000000000000000000000000000000000006020830152604082019050919050565b6000611919602083611dff565b91507f4f776e61626c653a2063616c6c6572206973206e6f7420746865206f776e65726000830152602082019050919050565b6000611959602083611dff565b91507f4f6e6c7920447944782063616e2063616c6c20746869732066756e6374696f6e6000830152602082019050919050565b6000610160830160008301516119a5600086018261179a565b5060208301516119b86020860182611af2565b5060408301516119cb6040860182611a3f565b5060608301516119de60c0860182611af2565b5060808301516119f160e0860182611af2565b5060a0830151611a05610100860182611630565b5060c0830151611a19610120860182611af2565b5060e0830151848203610140860152611a328282611730565b9150508091505092915050565b608082016000820151611a556000850182611721565b506020820151611a6860208501826117a9565b506040820151611a7b60408501826117b8565b506060820151611a8e6060850182611af2565b50505050565b604082016000820151611aaa6000850182611630565b506020820151611abd6020850182611af2565b50505050565b604082016000820151611ad96000850182611630565b506020820151611aec6020850182611af2565b50505050565b611afb81611f42565b82525050565b611b0a81611f42565b82525050565b6000611b1c8284611769565b915081905092915050565b6000602082019050611b3c600083018461163f565b92915050565b6000604082019050611b57600083018561163f565b611b646020830184611b01565b9392505050565b60006040820190508181036000830152611b8581856116c3565b90508181036020830152611b99818461164e565b90509392505050565b60006020820190508181036000830152611bbc81846117c7565b905092915050565b60006040820190508181036000830152611bde81856117c7565b9050611bed6020830184611b01565b9392505050565b60006020820190508181036000830152611c0d81611800565b9050919050565b60006020820190508181036000830152611c2d81611866565b9050919050565b60006020820190508181036000830152611c4d816118a6565b9050919050565b60006020820190508181036000830152611c6d8161190c565b9050919050565b60006020820190508181036000830152611c8d8161194c565b9050919050565b6000604082019050611ca96000830184611ac3565b92915050565b6000602082019050611cc46000830184611b01565b92915050565b6000604051905081810181811067ffffffffffffffff82111715611cf157611cf0612051565b5b8060405250919050565b600067ffffffffffffffff821115611d1657611d15612051565b5b601f19601f8301169050602081019050919050565b600067ffffffffffffffff821115611d4657611d45612051565b5b601f19601f8301169050602081019050919050565b6000819050602082019050919050565b6000819050602082019050919050565b600081519050919050565b600081519050919050565b600081519050919050565b600081519050919050565b6000602082019050919050565b6000602082019050919050565b600082825260208201905092915050565b600082825260208201905092915050565b600082825260208201905092915050565b600081905092915050565b600082825260208201905092915050565b6000611e1b82611f42565b9150611e2683611f42565b9250827fffffffffffffffffffffffffffffffffffffffffffffffffffffffffffffffff03821115611e5b57611e5a611fc4565b5b828201905092915050565b6000611e7182611f42565b9150611e7c83611f42565b925082611e8c57611e8b611ff3565b5b828204905092915050565b6000611ea282611f42565b9150611ead83611f42565b925082821015611ec057611ebf611fc4565b5b828203905092915050565b6000611ed682611f22565b9050919050565b60008115159050919050565b6000819050611ef782612091565b919050565b6000819050611f0a826120a5565b919050565b6000819050611f1d826120b9565b919050565b600073ffffffffffffffffffffffffffffffffffffffff82169050919050565b6000819050919050565b6000611f5782611ee9565b9050919050565b6000611f6982611efc565b9050919050565b6000611f7b82611f0f565b9050919050565b82818337600083830152505050565b60005b83811015611faf578082015181840152602081019050611f94565b83811115611fbe576000848401525b50505050565b7f4e487b7100000000000000000000000000000000000000000000000000000000600052601160045260246000fd5b7f4e487b7100000000000000000000000000000000000000000000000000000000600052601260045260246000fd5b7f4e487b7100000000000000000000000000000000000000000000000000000000600052602160045260246000fd5b7f4e487b7100000000000000000000000000000000000000000000000000000000600052604160045260246000fd5b6000601f19601f8301169050919050565b600981106120a2576120a1612022565b5b50565b600281106120b6576120b5612022565b5b50565b600281106120ca576120c9612022565b5b50565b6120d681611ecb565b81146120e157600080fd5b50565b6120ed81611edd565b81146120f857600080fd5b50565b61210481611f42565b811461210f57600080fd5b5056fe312e2d2044594458202d2d2d20426f72726f7720574554482028666c6173686c6f616e293a20a2646970667358221220c14049b60a2ad72b3ad6b45e35eb24f3ecccf0954d90366f48a2dceca169252964736f6c63430008000033",
  "linkReferences": {},
  "deployedLinkReferences": {}
}