{
  "_format": "hh-sol-artifact-1",
  "contractName": "WithdrawDAO",
  "sourceName": "contracts/WithdrawDAO.sol",
  "abi": [
    {
      "inputs": [],
      "name": "mainDAO",
      "outputs": [
        {
          "internalType": "contract DAO",
          "name": "",
          "type": "address"
        }
      ],
      "stateMutability": "view",
      "type": "function"
    },
    {
      "inputs": [],
      "name": "trustee",
      "outputs": [
        {
          "internalType": "address",
          "name": "",
          "type": "address"
        }
      ],
      "stateMutability": "view",
      "type": "function"
    },
    {
      "inputs": [],
      "name": "trusteeWithdraw",
      "outputs": [],
      "stateMutability": "nonpayable",
      "type": "function"
    },
    {
      "inputs": [],
      "name": "withdraw",
      "outputs": [],
      "stateMutability": "nonpayable",
      "type": "function"
    }
  ],
  "bytecode": "0x608060405273da4a4626d3e16e094de3225a751aab7128e965266000806101000a81548173ffffffffffffffffffffffffffffffffffffffff021916908373ffffffffffffffffffffffffffffffffffffffff16021790555034801561006457600080fd5b506104d8806100746000396000f3fe608060405234801561001057600080fd5b506004361061004c5760003560e01c80632e6e504a146100515780633ccfd60b1461005b578063eedcf50a14610065578063fdf97cb214610099575b600080fd5b6100596100cd565b005b610063610283565b005b61006d610466565b604051808273ffffffffffffffffffffffffffffffffffffffff16815260200191505060405180910390f35b6100a161047e565b604051808273ffffffffffffffffffffffffffffffffffffffff16815260200191505060405180910390f35b60008054906101000a900473ffffffffffffffffffffffffffffffffffffffff1673ffffffffffffffffffffffffffffffffffffffff166108fc73bb9bc244d798123fde783fcc1c72d3bb8c18941373ffffffffffffffffffffffffffffffffffffffff166318160ddd6040518163ffffffff1660e01b815260040160206040518083038186803b15801561016157600080fd5b505afa158015610175573d6000803e3d6000fd5b505050506040513d602081101561018b57600080fd5b810190808051906020019092919050505073bb9bc244d798123fde783fcc1c72d3bb8c18941373ffffffffffffffffffffffffffffffffffffffff166370a08231306040518263ffffffff1660e01b8152600401808273ffffffffffffffffffffffffffffffffffffffff16815260200191505060206040518083038186803b15801561021757600080fd5b505afa15801561022b573d6000803e3d6000fd5b505050506040513d602081101561024157600080fd5b81019080805190602001909291905050504701039081150290604051600060405180830381858888f19350505050158015610280573d6000803e3d6000fd5b50565b600073bb9bc244d798123fde783fcc1c72d3bb8c18941373ffffffffffffffffffffffffffffffffffffffff166370a08231336040518263ffffffff1660e01b8152600401808273ffffffffffffffffffffffffffffffffffffffff16815260200191505060206040518083038186803b15801561030057600080fd5b505afa158015610314573d6000803e3d6000fd5b505050506040513d602081101561032a57600080fd5b8101908080519060200190929190505050905073bb9bc244d798123fde783fcc1c72d3bb8c18941373ffffffffffffffffffffffffffffffffffffffff166323b872dd3330846040518463ffffffff1660e01b8152600401808473ffffffffffffffffffffffffffffffffffffffff1681526020018373ffffffffffffffffffffffffffffffffffffffff1681526020018281526020019350505050602060405180830381600087803b1580156103e057600080fd5b505af11580156103f4573d6000803e3d6000fd5b505050506040513d602081101561040a57600080fd5b8101908080519060200190929190505050158061045957503373ffffffffffffffffffffffffffffffffffffffff166108fc829081150290604051600060405180830381858888f19350505050155b1561046357600080fd5b50565b73bb9bc244d798123fde783fcc1c72d3bb8c18941381565b60008054906101000a900473ffffffffffffffffffffffffffffffffffffffff168156fea2646970667358221220195f9a7a309773e92ca82f4d3f37ad2ced79a3da3c32522e0322aa2bb2bb802664736f6c63430007030033",
  "linkReferences": {},
  "deployedLinkReferences": {}
}